{
  "_format": "hh-sol-artifact-1",
  "contractName": "NFTAuctionMarketUUPS_V2",
  "sourceName": "contracts/NFTAuctionMarketUUPS_V2.sol",
  "abi": [
    {
      "inputs": [
        {
          "internalType": "address",
          "name": "target",
          "type": "address"
        }
      ],
      "name": "AddressEmptyCode",
      "type": "error"
    },
    {
      "inputs": [
        {
          "internalType": "address",
          "name": "implementation",
          "type": "address"
        }
      ],
      "name": "ERC1967InvalidImplementation",
      "type": "error"
    },
    {
      "inputs": [],
      "name": "ERC1967NonPayable",
      "type": "error"
    },
    {
      "inputs": [],
      "name": "FailedCall",
      "type": "error"
    },
    {
      "inputs": [],
      "name": "InvalidInitialization",
      "type": "error"
    },
    {
      "inputs": [],
      "name": "NotInitializing",
      "type": "error"
    },
    {
      "inputs": [
        {
          "internalType": "address",
          "name": "owner",
          "type": "address"
        }
      ],
      "name": "OwnableInvalidOwner",
      "type": "error"
    },
    {
      "inputs": [
        {
          "internalType": "address",
          "name": "account",
          "type": "address"
        }
      ],
      "name": "OwnableUnauthorizedAccount",
      "type": "error"
    },
    {
      "inputs": [],
      "name": "ReentrancyGuardReentrantCall",
      "type": "error"
    },
    {
      "inputs": [],
      "name": "UUPSUnauthorizedCallContext",
      "type": "error"
    },
    {
      "inputs": [
        {
          "internalType": "bytes32",
          "name": "slot",
          "type": "bytes32"
        }
      ],
      "name": "UUPSUnsupportedProxiableUUID",
      "type": "error"
    },
    {
      "anonymous": false,
      "inputs": [
        {
          "indexed": true,
          "internalType": "uint256",
          "name": "auctionId",
          "type": "uint256"
        }
      ],
      "name": "AuctionCancelled",
      "type": "event"
    },
    {
      "anonymous": false,
      "inputs": [
        {
          "indexed": true,
          "internalType": "uint256",
          "name": "auctionId",
          "type": "uint256"
        },
        {
          "indexed": true,
          "internalType": "address",
          "name": "seller",
          "type": "address"
        },
        {
          "indexed": true,
          "internalType": "address",
          "name": "nft",
          "type": "address"
        },
        {
          "indexed": false,
          "internalType": "uint256",
          "name": "tokenId",
          "type": "uint256"
        },
        {
          "indexed": false,
          "internalType": "uint256",
          "name": "endTime",
          "type": "uint256"
        },
        {
          "indexed": false,
          "internalType": "uint256",
          "name": "minBidUsd18",
          "type": "uint256"
        }
      ],
      "name": "AuctionCreated",
      "type": "event"
    },
    {
      "anonymous": false,
      "inputs": [
        {
          "indexed": true,
          "internalType": "uint256",
          "name": "auctionId",
          "type": "uint256"
        },
        {
          "indexed": false,
          "internalType": "address",
          "name": "winner",
          "type": "address"
        },
        {
          "indexed": false,
          "internalType": "address",
          "name": "payToken",
          "type": "address"
        },
        {
          "indexed": false,
          "internalType": "uint256",
          "name": "payAmount",
          "type": "uint256"
        },
        {
          "indexed": false,
          "internalType": "uint256",
          "name": "payUsd18",
          "type": "uint256"
        }
      ],
      "name": "AuctionEnded",
      "type": "event"
    },
    {
      "anonymous": false,
      "inputs": [
        {
          "indexed": true,
          "internalType": "uint256",
          "name": "auctionId",
          "type": "uint256"
        },
        {
          "indexed": true,
          "internalType": "address",
          "name": "bidder",
          "type": "address"
        },
        {
          "indexed": false,
          "internalType": "address",
          "name": "bidToken",
          "type": "address"
        },
        {
          "indexed": false,
          "internalType": "uint256",
          "name": "bidAmount",
          "type": "uint256"
        },
        {
          "indexed": false,
          "internalType": "uint256",
          "name": "bidUsd18",
          "type": "uint256"
        }
      ],
      "name": "BidPlaced",
      "type": "event"
    },
    {
      "anonymous": false,
      "inputs": [
        {
          "indexed": false,
          "internalType": "uint64",
          "name": "version",
          "type": "uint64"
        }
      ],
      "name": "Initialized",
      "type": "event"
    },
    {
      "anonymous": false,
      "inputs": [
        {
          "indexed": true,
          "internalType": "address",
          "name": "previousOwner",
          "type": "address"
        },
        {
          "indexed": true,
          "internalType": "address",
          "name": "newOwner",
          "type": "address"
        }
      ],
      "name": "OwnershipTransferred",
      "type": "event"
    },
    {
      "anonymous": false,
      "inputs": [
        {
          "indexed": true,
          "internalType": "address",
          "name": "implementation",
          "type": "address"
        }
      ],
      "name": "Upgraded",
      "type": "event"
    },
    {
      "inputs": [],
      "name": "NATIVE_TOKEN",
      "outputs": [
        {
          "internalType": "address",
          "name": "",
          "type": "address"
        }
      ],
      "stateMutability": "view",
      "type": "function"
    },
    {
      "inputs": [],
      "name": "UPGRADE_INTERFACE_VERSION",
      "outputs": [
        {
          "internalType": "string",
          "name": "",
          "type": "string"
        }
      ],
      "stateMutability": "view",
      "type": "function"
    },
    {
      "inputs": [
        {
          "internalType": "uint256",
          "name": "",
          "type": "uint256"
        }
      ],
      "name": "auctions",
      "outputs": [
        {
          "internalType": "address",
          "name": "seller",
          "type": "address"
        },
        {
          "internalType": "address",
          "name": "nft",
          "type": "address"
        },
        {
          "internalType": "uint256",
          "name": "tokenId",
          "type": "uint256"
        },
        {
          "internalType": "uint256",
          "name": "endTime",
          "type": "uint256"
        },
        {
          "internalType": "bool",
          "name": "ended",
          "type": "bool"
        },
        {
          "internalType": "address",
          "name": "highestBidToken",
          "type": "address"
        },
        {
          "internalType": "uint256",
          "name": "highestBidAmount",
          "type": "uint256"
        },
        {
          "internalType": "uint256",
          "name": "highestBidUsd18",
          "type": "uint256"
        },
        {
          "internalType": "address",
          "name": "highestBidder",
          "type": "address"
        },
        {
          "internalType": "uint256",
          "name": "minBidUsd18",
          "type": "uint256"
        }
      ],
      "stateMutability": "view",
      "type": "function"
    },
    {
      "inputs": [
        {
          "internalType": "uint256",
          "name": "auctionId",
          "type": "uint256"
        }
      ],
      "name": "bidEth",
      "outputs": [],
      "stateMutability": "payable",
      "type": "function"
    },
    {
      "inputs": [
        {
          "internalType": "uint256",
          "name": "auctionId",
          "type": "uint256"
        },
        {
          "internalType": "uint256",
          "name": "usdcAmount",
          "type": "uint256"
        }
      ],
      "name": "bidUSDC",
      "outputs": [],
      "stateMutability": "nonpayable",
      "type": "function"
    },
    {
      "inputs": [
        {
          "internalType": "address",
          "name": "nft",
          "type": "address"
        },
        {
          "internalType": "uint256",
          "name": "tokenId",
          "type": "uint256"
        },
        {
          "internalType": "uint256",
          "name": "durationSeconds",
          "type": "uint256"
        },
        {
          "internalType": "uint256",
          "name": "minBidUsd18",
          "type": "uint256"
        }
      ],
      "name": "createAuction",
      "outputs": [
        {
          "internalType": "uint256",
          "name": "auctionId",
          "type": "uint256"
        }
      ],
      "stateMutability": "nonpayable",
      "type": "function"
    },
    {
      "inputs": [
        {
          "internalType": "uint256",
          "name": "auctionId",
          "type": "uint256"
        }
      ],
      "name": "endAuction",
      "outputs": [],
      "stateMutability": "nonpayable",
      "type": "function"
    },
    {
      "inputs": [],
      "name": "ethUsdFeed",
      "outputs": [
        {
          "internalType": "contract AggregatorV3Interface",
          "name": "",
          "type": "address"
        }
      ],
      "stateMutability": "view",
      "type": "function"
    },
    {
      "inputs": [],
      "name": "feeBps",
      "outputs": [
        {
          "internalType": "uint256",
          "name": "",
          "type": "uint256"
        }
      ],
      "stateMutability": "view",
      "type": "function"
    },
    {
      "inputs": [],
      "name": "feeRecipient",
      "outputs": [
        {
          "internalType": "address",
          "name": "",
          "type": "address"
        }
      ],
      "stateMutability": "view",
      "type": "function"
    },
    {
      "inputs": [
        {
          "internalType": "uint256",
          "name": "auctionId",
          "type": "uint256"
        }
      ],
      "name": "getAuction",
      "outputs": [
        {
          "components": [
            {
              "internalType": "address",
              "name": "seller",
              "type": "address"
            },
            {
              "internalType": "address",
              "name": "nft",
              "type": "address"
            },
            {
              "internalType": "uint256",
              "name": "tokenId",
              "type": "uint256"
            },
            {
              "internalType": "uint256",
              "name": "endTime",
              "type": "uint256"
            },
            {
              "internalType": "bool",
              "name": "ended",
              "type": "bool"
            },
            {
              "internalType": "address",
              "name": "highestBidToken",
              "type": "address"
            },
            {
              "internalType": "uint256",
              "name": "highestBidAmount",
              "type": "uint256"
            },
            {
              "internalType": "uint256",
              "name": "highestBidUsd18",
              "type": "uint256"
            },
            {
              "internalType": "address",
              "name": "highestBidder",
              "type": "address"
            },
            {
              "internalType": "uint256",
              "name": "minBidUsd18",
              "type": "uint256"
            }
          ],
          "internalType": "struct NFTAuctionMarketUUPS_V1.Auction",
          "name": "",
          "type": "tuple"
        }
      ],
      "stateMutability": "view",
      "type": "function"
    },
    {
      "inputs": [
        {
          "internalType": "address",
          "name": "_ethUsdFeed",
          "type": "address"
        },
        {
          "internalType": "address",
          "name": "_usdc",
          "type": "address"
        },
        {
          "internalType": "address",
          "name": "_usdcUsdFeed",
          "type": "address"
        },
        {
          "internalType": "address",
          "name": "_feeRecipient",
          "type": "address"
        },
        {
          "internalType": "uint256",
          "name": "_feeBps",
          "type": "uint256"
        }
      ],
      "name": "initialize",
      "outputs": [],
      "stateMutability": "nonpayable",
      "type": "function"
    },
    {
      "inputs": [],
      "name": "nextAuctionId",
      "outputs": [
        {
          "internalType": "uint256",
          "name": "",
          "type": "uint256"
        }
      ],
      "stateMutability": "view",
      "type": "function"
    },
    {
      "inputs": [],
      "name": "owner",
      "outputs": [
        {
          "internalType": "address",
          "name": "",
          "type": "address"
        }
      ],
      "stateMutability": "view",
      "type": "function"
    },
    {
      "inputs": [],
      "name": "proxiableUUID",
      "outputs": [
        {
          "internalType": "bytes32",
          "name": "",
          "type": "bytes32"
        }
      ],
      "stateMutability": "view",
      "type": "function"
    },
    {
      "inputs": [],
      "name": "renounceOwnership",
      "outputs": [],
      "stateMutability": "nonpayable",
      "type": "function"
    },
    {
      "inputs": [
        {
          "internalType": "address",
          "name": "newOwner",
          "type": "address"
        }
      ],
      "name": "transferOwnership",
      "outputs": [],
      "stateMutability": "nonpayable",
      "type": "function"
    },
    {
      "inputs": [
        {
          "internalType": "address",
          "name": "newImplementation",
          "type": "address"
        },
        {
          "internalType": "bytes",
          "name": "data",
          "type": "bytes"
        }
      ],
      "name": "upgradeToAndCall",
      "outputs": [],
      "stateMutability": "payable",
      "type": "function"
    },
    {
      "inputs": [],
      "name": "usdc",
      "outputs": [
        {
          "internalType": "contract IERC20",
          "name": "",
          "type": "address"
        }
      ],
      "stateMutability": "view",
      "type": "function"
    },
    {
      "inputs": [],
      "name": "usdcUsdFeed",
      "outputs": [
        {
          "internalType": "contract AggregatorV3Interface",
          "name": "",
          "type": "address"
        }
      ],
      "stateMutability": "view",
      "type": "function"
    },
    {
      "inputs": [],
      "name": "version",
      "outputs": [
        {
          "internalType": "uint256",
          "name": "",
          "type": "uint256"
        }
      ],
      "stateMutability": "pure",
      "type": "function"
    },
    {
      "stateMutability": "payable",
      "type": "receive"
    }
  ],
  "bytecode": "0x60a06040523073ffffffffffffffffffffffffffffffffffffffff1660809073ffffffffffffffffffffffffffffffffffffffff1681525034801561004357600080fd5b5061005261005760201b60201c565b6101de565b600061006761015b60201b60201c565b90508060000160089054906101000a900460ff16156100b2576040517ff92ee8a900000000000000000000000000000000000000000000000000000000815260040160405180910390fd5b67ffffffffffffffff80168160000160009054906101000a900467ffffffffffffffff1667ffffffffffffffff16146101585767ffffffffffffffff8160000160006101000a81548167ffffffffffffffff021916908367ffffffffffffffff1602179055507fc7f505b2f371ae2175ee4913f4499e1f2633a7b5936321eed1cdaeb6115181d267ffffffffffffffff60405161014f91906101c3565b60405180910390a15b50565b60008061016c61017560201b60201c565b90508091505090565b60007ff0c57e16840df040f15088dc2f81fe391c3923bec73e23a9662efc9c229c6a0060001b905090565b600067ffffffffffffffff82169050919050565b6101bd816101a0565b82525050565b60006020820190506101d860008301846101b4565b92915050565b6080516141ca61020760003960008181611deb01528181611e400152611ffb01526141ca6000f3fe60806040526004361061012e5760003560e01c8063571a26a0116100ab5780638da5cb5b1161006f5780638da5cb5b146103ca578063ad3cb1cc146103f5578063b9a2de3a14610420578063f2fde38b14610449578063f7013ef614610472578063fc5284821461049b57610135565b8063571a26a0146102c857806361beb1d71461030e578063715018a61461034b57806378bd7935146103625780638009b7bd1461039f57610135565b80634d9a75e5116100f25780634d9a75e51461020f5780634f1ef2861461023a57806352d1902d1461025657806354fd4d501461028157806355c623c6146102ac57610135565b806324a9d8531461013a5780632ddbd42c1461016557806331f7d9641461018e5780633e413bee146101b957806346904840146101e457610135565b3661013557005b600080fd5b34801561014657600080fd5b5061014f6104c6565b60405161015c9190612bda565b60405180910390f35b34801561017157600080fd5b5061018c60048036038101906101879190612c35565b6104cc565b005b34801561019a57600080fd5b506101a3610785565b6040516101b09190612cb6565b60405180910390f35b3480156101c557600080fd5b506101ce61078a565b6040516101db9190612d30565b60405180910390f35b3480156101f057600080fd5b506101f96107b0565b6040516102069190612cb6565b60405180910390f35b34801561021b57600080fd5b506102246107d6565b6040516102319190612d6c565b60405180910390f35b610254600480360381019061024f9190612ef9565b6107fc565b005b34801561026257600080fd5b5061026b61081b565b6040516102789190612f6e565b60405180910390f35b34801561028d57600080fd5b5061029661084e565b6040516102a39190612bda565b60405180910390f35b6102c660048036038101906102c19190612f89565b610857565b005b3480156102d457600080fd5b506102ef60048036038101906102ea9190612f89565b610a0d565b6040516103059a99989796959493929190612fd1565b60405180910390f35b34801561031a57600080fd5b506103356004803603810190610330919061306d565b610aee565b6040516103429190612bda565b60405180910390f35b34801561035757600080fd5b50610360610ec9565b005b34801561036e57600080fd5b5061038960048036038101906103849190612f89565b610edd565b60405161039691906131cd565b60405180910390f35b3480156103ab57600080fd5b506103b46110b0565b6040516103c19190612d6c565b60405180910390f35b3480156103d657600080fd5b506103df6110d6565b6040516103ec9190612cb6565b60405180910390f35b34801561040157600080fd5b5061040a61110e565b6040516104179190613268565b60405180910390f35b34801561042c57600080fd5b5061044760048036038101906104429190612f89565b611147565b005b34801561045557600080fd5b50610470600480360381019061046b919061328a565b611787565b005b34801561047e57600080fd5b50610499600480360381019061049491906132b7565b61180d565b005b3480156104a757600080fd5b506104b0611abb565b6040516104bd9190612bda565b60405180910390f35b60065481565b6104d4611ac1565b6000600160008481526020019081526020016000209050600073ffffffffffffffffffffffffffffffffffffffff168160000160009054906101000a900473ffffffffffffffffffffffffffffffffffffffff1673ffffffffffffffffffffffffffffffffffffffff160361057e576040517f08c379a00000000000000000000000000000000000000000000000000000000081526004016105759061337e565b60405180910390fd5b8060040160009054906101000a900460ff16156105d0576040517f08c379a00000000000000000000000000000000000000000000000000000000081526004016105c7906133ea565b60405180910390fd5b80600301544210610616576040517f08c379a000000000000000000000000000000000000000000000000000000000815260040161060d90613456565b60405180910390fd5b60008211610659576040517f08c379a0000000000000000000000000000000000000000000000000000000008152600401610650906134c2565b60405180910390fd5b600061066483611b18565b9050600260009054906101000a900473ffffffffffffffffffffffffffffffffffffffff1673ffffffffffffffffffffffffffffffffffffffff166323b872dd3330866040518463ffffffff1660e01b81526004016106c5939291906134e2565b6020604051808303816000875af11580156106e4573d6000803e3d6000fd5b505050506040513d601f19601f820116820180604052508101906107089190613545565b610747576040517f08c379a000000000000000000000000000000000000000000000000000000000815260040161073e906135be565b60405180910390fd5b610777828533600260009054906101000a900473ffffffffffffffffffffffffffffffffffffffff168786611ba0565b5050610781611dd0565b5050565b600081565b600260009054906101000a900473ffffffffffffffffffffffffffffffffffffffff1681565b600560009054906101000a900473ffffffffffffffffffffffffffffffffffffffff1681565b600460009054906101000a900473ffffffffffffffffffffffffffffffffffffffff1681565b610804611de9565b61080d82611ecf565b6108178282611eda565b5050565b6000610825611ff9565b7f360894a13ba1a3210667c828492db98dca3e2076cc3735a920a3ca505d382bbc60001b905090565b60006002905090565b61085f611ac1565b6000600160008381526020019081526020016000209050600073ffffffffffffffffffffffffffffffffffffffff168160000160009054906101000a900473ffffffffffffffffffffffffffffffffffffffff1673ffffffffffffffffffffffffffffffffffffffff1603610909576040517f08c379a00000000000000000000000000000000000000000000000000000000081526004016109009061337e565b60405180910390fd5b8060040160009054906101000a900460ff161561095b576040517f08c379a0000000000000000000000000000000000000000000000000000000008152600401610952906133ea565b60405180910390fd5b806003015442106109a1576040517f08c379a000000000000000000000000000000000000000000000000000000000815260040161099890613456565b60405180910390fd5b600034116109e4576040517f08c379a00000000000000000000000000000000000000000000000000000000081526004016109db906134c2565b60405180910390fd5b60006109ef34612080565b9050610a0082843360003486611ba0565b5050610a0a611dd0565b50565b60016020528060005260406000206000915090508060000160009054906101000a900473ffffffffffffffffffffffffffffffffffffffff16908060010160009054906101000a900473ffffffffffffffffffffffffffffffffffffffff16908060020154908060030154908060040160009054906101000a900460ff16908060040160019054906101000a900473ffffffffffffffffffffffffffffffffffffffff16908060050154908060060154908060070160009054906101000a900473ffffffffffffffffffffffffffffffffffffffff1690806008015490508a565b6000610af8611ac1565b60008311610b3b576040517f08c379a0000000000000000000000000000000000000000000000000000000008152600401610b329061362a565b60405180910390fd5b60008211610b7e576040517f08c379a0000000000000000000000000000000000000000000000000000000008152600401610b7590613696565b60405180910390fd5b6000808154610b8c906136e5565b91905081905590506040518061014001604052803373ffffffffffffffffffffffffffffffffffffffff1681526020018673ffffffffffffffffffffffffffffffffffffffff1681526020018581526020018442610bea919061372d565b8152602001600015158152602001600073ffffffffffffffffffffffffffffffffffffffff1681526020016000815260200160008152602001600073ffffffffffffffffffffffffffffffffffffffff168152602001838152506001600083815260200190815260200160002060008201518160000160006101000a81548173ffffffffffffffffffffffffffffffffffffffff021916908373ffffffffffffffffffffffffffffffffffffffff16021790555060208201518160010160006101000a81548173ffffffffffffffffffffffffffffffffffffffff021916908373ffffffffffffffffffffffffffffffffffffffff160217905550604082015181600201556060820151816003015560808201518160040160006101000a81548160ff02191690831515021790555060a08201518160040160016101000a81548173ffffffffffffffffffffffffffffffffffffffff021916908373ffffffffffffffffffffffffffffffffffffffff16021790555060c0820151816005015560e082015181600601556101008201518160070160006101000a81548173ffffffffffffffffffffffffffffffffffffffff021916908373ffffffffffffffffffffffffffffffffffffffff16021790555061012082015181600801559050508473ffffffffffffffffffffffffffffffffffffffff166323b872dd3330876040518463ffffffff1660e01b8152600401610e07939291906134e2565b600060405180830381600087803b158015610e2157600080fd5b505af1158015610e35573d6000803e3d6000fd5b505050508473ffffffffffffffffffffffffffffffffffffffff163373ffffffffffffffffffffffffffffffffffffffff16827f06b9e486c68303eb64052e0493f906f3d93a1b7149b6b8dcff221aebd16c351387600160008781526020019081526020016000206003015487604051610eb193929190613761565b60405180910390a4610ec1611dd0565b949350505050565b610ed161210a565b610edb6000612191565b565b610ee5612b14565b60016000838152602001908152602001600020604051806101400160405290816000820160009054906101000a900473ffffffffffffffffffffffffffffffffffffffff1673ffffffffffffffffffffffffffffffffffffffff1673ffffffffffffffffffffffffffffffffffffffff1681526020016001820160009054906101000a900473ffffffffffffffffffffffffffffffffffffffff1673ffffffffffffffffffffffffffffffffffffffff1673ffffffffffffffffffffffffffffffffffffffff16815260200160028201548152602001600382015481526020016004820160009054906101000a900460ff161515151581526020016004820160019054906101000a900473ffffffffffffffffffffffffffffffffffffffff1673ffffffffffffffffffffffffffffffffffffffff1673ffffffffffffffffffffffffffffffffffffffff16815260200160058201548152602001600682015481526020016007820160009054906101000a900473ffffffffffffffffffffffffffffffffffffffff1673ffffffffffffffffffffffffffffffffffffffff1673ffffffffffffffffffffffffffffffffffffffff1681526020016008820154815250509050919050565b600360009054906101000a900473ffffffffffffffffffffffffffffffffffffffff1681565b6000806110e1612268565b90508060000160009054906101000a900473ffffffffffffffffffffffffffffffffffffffff1691505090565b6040518060400160405280600581526020017f352e302e3000000000000000000000000000000000000000000000000000000081525081565b61114f611ac1565b6000600160008381526020019081526020016000209050600073ffffffffffffffffffffffffffffffffffffffff168160000160009054906101000a900473ffffffffffffffffffffffffffffffffffffffff1673ffffffffffffffffffffffffffffffffffffffff16036111f9576040517f08c379a00000000000000000000000000000000000000000000000000000000081526004016111f09061337e565b60405180910390fd5b8060040160009054906101000a900460ff161561124b576040517f08c379a0000000000000000000000000000000000000000000000000000000008152600401611242906137e4565b60405180910390fd5b8060030154421015611292576040517f08c379a000000000000000000000000000000000000000000000000000000000815260040161128990613850565b60405180910390fd5b60018160040160006101000a81548160ff021916908315150217905550600073ffffffffffffffffffffffffffffffffffffffff168160070160009054906101000a900473ffffffffffffffffffffffffffffffffffffffff1673ffffffffffffffffffffffffffffffffffffffff16036113f5578060010160009054906101000a900473ffffffffffffffffffffffffffffffffffffffff1673ffffffffffffffffffffffffffffffffffffffff166323b872dd308360000160009054906101000a900473ffffffffffffffffffffffffffffffffffffffff1684600201546040518463ffffffff1660e01b8152600401611390939291906134e2565b600060405180830381600087803b1580156113aa57600080fd5b505af11580156113be573d6000803e3d6000fd5b50505050817f2809c7e17bf978fbc7194c0a694b638c4215e9140cacc6c38ca36010b45697df60405160405180910390a25061177c565b8060010160009054906101000a900473ffffffffffffffffffffffffffffffffffffffff1673ffffffffffffffffffffffffffffffffffffffff166323b872dd308360070160009054906101000a900473ffffffffffffffffffffffffffffffffffffffff1684600201546040518463ffffffff1660e01b815260040161147e939291906134e2565b600060405180830381600087803b15801561149857600080fd5b505af11580156114ac573d6000803e3d6000fd5b50505050600073ffffffffffffffffffffffffffffffffffffffff168160040160019054906101000a900473ffffffffffffffffffffffffffffffffffffffff1673ffffffffffffffffffffffffffffffffffffffff16036115e25760008160000160009054906101000a900473ffffffffffffffffffffffffffffffffffffffff1673ffffffffffffffffffffffffffffffffffffffff168260050154604051611556906138a1565b60006040518083038185875af1925050503d8060008114611593576040519150601f19603f3d011682016040523d82523d6000602084013e611598565b606091505b50509050806115dc576040517f08c379a00000000000000000000000000000000000000000000000000000000081526004016115d390613902565b60405180910390fd5b506116ec565b8060040160019054906101000a900473ffffffffffffffffffffffffffffffffffffffff1673ffffffffffffffffffffffffffffffffffffffff1663a9059cbb8260000160009054906101000a900473ffffffffffffffffffffffffffffffffffffffff1683600501546040518363ffffffff1660e01b8152600401611669929190613922565b6020604051808303816000875af1158015611688573d6000803e3d6000fd5b505050506040513d601f19601f820116820180604052508101906116ac9190613545565b6116eb576040517f08c379a00000000000000000000000000000000000000000000000000000000081526004016116e290613997565b60405180910390fd5b5b817f596165d0521c3cb4157fad2621686f086daed4663acb3d03441a92b9277f56838260070160009054906101000a900473ffffffffffffffffffffffffffffffffffffffff168360040160019054906101000a900473ffffffffffffffffffffffffffffffffffffffff168460050154856006015460405161177294939291906139b7565b60405180910390a2505b611784611dd0565b50565b61178f61210a565b600073ffffffffffffffffffffffffffffffffffffffff168173ffffffffffffffffffffffffffffffffffffffff16036118015760006040517f1e4fbdf70000000000000000000000000000000000000000000000000000000081526004016117f89190612cb6565b60405180910390fd5b61180a81612191565b50565b6000611817612290565b905060008160000160089054906101000a900460ff1615905060008260000160009054906101000a900467ffffffffffffffff1690506000808267ffffffffffffffff161480156118655750825b9050600060018367ffffffffffffffff1614801561189a575060003073ffffffffffffffffffffffffffffffffffffffff163b145b9050811580156118a8575080155b156118df576040517ff92ee8a900000000000000000000000000000000000000000000000000000000815260040160405180910390fd5b60018560000160006101000a81548167ffffffffffffffff021916908367ffffffffffffffff160217905550831561192f5760018560000160086101000a81548160ff0219169083151502179055505b611938336122a4565b6119406122b8565b6119486122c2565b89600360006101000a81548173ffffffffffffffffffffffffffffffffffffffff021916908373ffffffffffffffffffffffffffffffffffffffff16021790555088600260006101000a81548173ffffffffffffffffffffffffffffffffffffffff021916908373ffffffffffffffffffffffffffffffffffffffff16021790555087600460006101000a81548173ffffffffffffffffffffffffffffffffffffffff021916908373ffffffffffffffffffffffffffffffffffffffff16021790555086600560006101000a81548173ffffffffffffffffffffffffffffffffffffffff021916908373ffffffffffffffffffffffffffffffffffffffff160217905550856006819055508315611aaf5760008560000160086101000a81548160ff0219169083151502179055507fc7f505b2f371ae2175ee4913f4499e1f2633a7b5936321eed1cdaeb6115181d26001604051611aa69190613a4b565b60405180910390a15b50505050505050505050565b60005481565b6000611acb6122d4565b90506002816000015403611b0b576040517f3ee5aeb500000000000000000000000000000000000000000000000000000000815260040160405180910390fd5b6002816000018190555050565b6000617a694603611b3b5764e8d4a5100082611b349190613a66565b9050611b9b565b600080611b69600460009054906101000a900473ffffffffffffffffffffffffffffffffffffffff166122fc565b915091506000620f42408386611b7f9190613a66565b611b899190613ad7565b9050611b958183612479565b93505050505b919050565b8560080154811015611be7576040517f08c379a0000000000000000000000000000000000000000000000000000000008152600401611bde90613b54565b60405180910390fd5b85600601548111611c2d576040517f08c379a0000000000000000000000000000000000000000000000000000000008152600401611c2490613bc0565b60405180910390fd5b600073ffffffffffffffffffffffffffffffffffffffff168660070160009054906101000a900473ffffffffffffffffffffffffffffffffffffffff1673ffffffffffffffffffffffffffffffffffffffff1614611cdd57611cdc8660070160009054906101000a900473ffffffffffffffffffffffffffffffffffffffff168760040160019054906101000a900473ffffffffffffffffffffffffffffffffffffffff1688600501546124f2565b5b838660070160006101000a81548173ffffffffffffffffffffffffffffffffffffffff021916908373ffffffffffffffffffffffffffffffffffffffff160217905550828660040160016101000a81548173ffffffffffffffffffffffffffffffffffffffff021916908373ffffffffffffffffffffffffffffffffffffffff1602179055508186600501819055508086600601819055508373ffffffffffffffffffffffffffffffffffffffff16857f2808decb743a25d04efe1bd3dc192acde3be644e2f6ad1dce5d3c46643e1c602858585604051611dc093929190613be0565b60405180910390a3505050505050565b6000611dda6122d4565b90506001816000018190555050565b7f000000000000000000000000000000000000000000000000000000000000000073ffffffffffffffffffffffffffffffffffffffff163073ffffffffffffffffffffffffffffffffffffffff161480611e9657507f000000000000000000000000000000000000000000000000000000000000000073ffffffffffffffffffffffffffffffffffffffff16611e7d6126a5565b73ffffffffffffffffffffffffffffffffffffffff1614155b15611ecd576040517fe07c8dba00000000000000000000000000000000000000000000000000000000815260040160405180910390fd5b565b611ed761210a565b50565b8173ffffffffffffffffffffffffffffffffffffffff166352d1902d6040518163ffffffff1660e01b8152600401602060405180830381865afa925050508015611f4257506040513d601f19601f82011682018060405250810190611f3f9190613c43565b60015b611f8357816040517f4c9c8ce3000000000000000000000000000000000000000000000000000000008152600401611f7a9190612cb6565b60405180910390fd5b7f360894a13ba1a3210667c828492db98dca3e2076cc3735a920a3ca505d382bbc60001b8114611fea57806040517faa1d49a4000000000000000000000000000000000000000000000000000000008152600401611fe19190612f6e565b60405180910390fd5b611ff483836126fc565b505050565b7f000000000000000000000000000000000000000000000000000000000000000073ffffffffffffffffffffffffffffffffffffffff163073ffffffffffffffffffffffffffffffffffffffff161461207e576040517fe07c8dba00000000000000000000000000000000000000000000000000000000815260040160405180910390fd5b565b6000617a6946036120a0576107d0826120999190613a66565b9050612105565b6000806120ce600360009054906101000a900473ffffffffffffffffffffffffffffffffffffffff166122fc565b915091506000670de0b6b3a764000083866120e99190613a66565b6120f39190613ad7565b90506120ff8183612479565b93505050505b919050565b61211261276f565b73ffffffffffffffffffffffffffffffffffffffff166121306110d6565b73ffffffffffffffffffffffffffffffffffffffff161461218f5761215361276f565b6040517f118cdaa70000000000000000000000000000000000000000000000000000000081526004016121869190612cb6565b60405180910390fd5b565b600061219b612268565b905060008160000160009054906101000a900473ffffffffffffffffffffffffffffffffffffffff169050828260000160006101000a81548173ffffffffffffffffffffffffffffffffffffffff021916908373ffffffffffffffffffffffffffffffffffffffff1602179055508273ffffffffffffffffffffffffffffffffffffffff168173ffffffffffffffffffffffffffffffffffffffff167f8be0079c531659141344cd1fd0a4f28419497f9722a3daafe3b4186f6b6457e060405160405180910390a3505050565b60007f9016d09d72d40fdae2fd8ceac6b6234c7706214fd39c1cd1e609a0528c199300905090565b60008061229b612777565b90508091505090565b6122ac6127a2565b6122b5816127e2565b50565b6122c06127a2565b565b6122ca6127a2565b6122d2612868565b565b60007f9b779b17422d0df92223018b32b4d1fa46e071723d6817e2486d003becc55f00905090565b6000806000808473ffffffffffffffffffffffffffffffffffffffff1663feaf968c6040518163ffffffff1660e01b815260040160a060405180830381865afa15801561234d573d6000803e3d6000fd5b505050506040513d601f19601f820116820180604052508101906123719190613cfd565b50935050925050600082136123bb576040517f08c379a00000000000000000000000000000000000000000000000000000000081526004016123b290613dc4565b60405180910390fd5b600081116123fe576040517f08c379a00000000000000000000000000000000000000000000000000000000081526004016123f590613e30565b60405180910390fd5b8193508473ffffffffffffffffffffffffffffffffffffffff1663313ce5676040518163ffffffff1660e01b8152600401602060405180830381865afa15801561244c573d6000803e3d6000fd5b505050506040513d601f19601f820116820180604052508101906124709190613e89565b92505050915091565b600060128260ff160361248e578290506124ec565b60128260ff1610156124c5578160126124a79190613eb6565b600a6124b3919061401e565b836124be9190613a66565b90506124ec565b6012826124d29190613eb6565b600a6124de919061401e565b836124e99190613ad7565b90505b92915050565b60008103156126a057600073ffffffffffffffffffffffffffffffffffffffff168273ffffffffffffffffffffffffffffffffffffffff16036125e15760008373ffffffffffffffffffffffffffffffffffffffff1682604051612555906138a1565b60006040518083038185875af1925050503d8060008114612592576040519150601f19603f3d011682016040523d82523d6000602084013e612597565b606091505b50509050806125db576040517f08c379a00000000000000000000000000000000000000000000000000000000081526004016125d2906140b5565b60405180910390fd5b5061269f565b8173ffffffffffffffffffffffffffffffffffffffff1663a9059cbb84836040518363ffffffff1660e01b815260040161261c929190613922565b6020604051808303816000875af115801561263b573d6000803e3d6000fd5b505050506040513d601f19601f8201168201806040525081019061265f9190613545565b61269e576040517f08c379a000000000000000000000000000000000000000000000000000000000815260040161269590614121565b60405180910390fd5b5b5b505050565b60006126d37f360894a13ba1a3210667c828492db98dca3e2076cc3735a920a3ca505d382bbc60001b612889565b60000160009054906101000a900473ffffffffffffffffffffffffffffffffffffffff16905090565b61270582612893565b8173ffffffffffffffffffffffffffffffffffffffff167fbc7cd75a20ee27fd9adebab32041f755214dbc6bffa90cc0225b39da2e5c2d3b60405160405180910390a26000815111156127625761275c8282612960565b5061276b565b61276a6129e4565b5b5050565b600033905090565b60007ff0c57e16840df040f15088dc2f81fe391c3923bec73e23a9662efc9c229c6a0060001b905090565b6127aa612a21565b6127e0576040517fd7e6bcf800000000000000000000000000000000000000000000000000000000815260040160405180910390fd5b565b6127ea6127a2565b600073ffffffffffffffffffffffffffffffffffffffff168173ffffffffffffffffffffffffffffffffffffffff160361285c5760006040517f1e4fbdf70000000000000000000000000000000000000000000000000000000081526004016128539190612cb6565b60405180910390fd5b61286581612191565b50565b6128706127a2565b600061287a6122d4565b90506001816000018190555050565b6000819050919050565b60008173ffffffffffffffffffffffffffffffffffffffff163b036128ef57806040517f4c9c8ce30000000000000000000000000000000000000000000000000000000081526004016128e69190612cb6565b60405180910390fd5b8061291c7f360894a13ba1a3210667c828492db98dca3e2076cc3735a920a3ca505d382bbc60001b612889565b60000160006101000a81548173ffffffffffffffffffffffffffffffffffffffff021916908373ffffffffffffffffffffffffffffffffffffffff16021790555050565b60606000808473ffffffffffffffffffffffffffffffffffffffff168460405161298a919061417d565b600060405180830381855af49150503d80600081146129c5576040519150601f19603f3d011682016040523d82523d6000602084013e6129ca565b606091505b50915091506129da858383612a41565b9250505092915050565b6000341115612a1f576040517fb398979f00000000000000000000000000000000000000000000000000000000815260040160405180910390fd5b565b6000612a2b612290565b60000160089054906101000a900460ff16905090565b606082612a5657612a5182612ad0565b612ac8565b60008251148015612a7e575060008473ffffffffffffffffffffffffffffffffffffffff163b145b15612ac057836040517f9996b315000000000000000000000000000000000000000000000000000000008152600401612ab79190612cb6565b60405180910390fd5b819050612ac9565b5b9392505050565b600081511115612ae257805160208201fd5b6040517fd6bda27500000000000000000000000000000000000000000000000000000000815260040160405180910390fd5b604051806101400160405280600073ffffffffffffffffffffffffffffffffffffffff168152602001600073ffffffffffffffffffffffffffffffffffffffff1681526020016000815260200160008152602001600015158152602001600073ffffffffffffffffffffffffffffffffffffffff1681526020016000815260200160008152602001600073ffffffffffffffffffffffffffffffffffffffff168152602001600081525090565b6000819050919050565b612bd481612bc1565b82525050565b6000602082019050612bef6000830184612bcb565b92915050565b6000604051905090565b600080fd5b600080fd5b612c1281612bc1565b8114612c1d57600080fd5b50565b600081359050612c2f81612c09565b92915050565b60008060408385031215612c4c57612c4b612bff565b5b6000612c5a85828601612c20565b9250506020612c6b85828601612c20565b9150509250929050565b600073ffffffffffffffffffffffffffffffffffffffff82169050919050565b6000612ca082612c75565b9050919050565b612cb081612c95565b82525050565b6000602082019050612ccb6000830184612ca7565b92915050565b6000819050919050565b6000612cf6612cf1612cec84612c75565b612cd1565b612c75565b9050919050565b6000612d0882612cdb565b9050919050565b6000612d1a82612cfd565b9050919050565b612d2a81612d0f565b82525050565b6000602082019050612d456000830184612d21565b92915050565b6000612d5682612cfd565b9050919050565b612d6681612d4b565b82525050565b6000602082019050612d816000830184612d5d565b92915050565b612d9081612c95565b8114612d9b57600080fd5b50565b600081359050612dad81612d87565b92915050565b600080fd5b600080fd5b6000601f19601f8301169050919050565b7f4e487b7100000000000000000000000000000000000000000000000000000000600052604160045260246000fd5b612e0682612dbd565b810181811067ffffffffffffffff82111715612e2557612e24612dce565b5b80604052505050565b6000612e38612bf5565b9050612e448282612dfd565b919050565b600067ffffffffffffffff821115612e6457612e63612dce565b5b612e6d82612dbd565b9050602081019050919050565b82818337600083830152505050565b6000612e9c612e9784612e49565b612e2e565b905082815260208101848484011115612eb857612eb7612db8565b5b612ec3848285612e7a565b509392505050565b600082601f830112612ee057612edf612db3565b5b8135612ef0848260208601612e89565b91505092915050565b60008060408385031215612f1057612f0f612bff565b5b6000612f1e85828601612d9e565b925050602083013567ffffffffffffffff811115612f3f57612f3e612c04565b5b612f4b85828601612ecb565b9150509250929050565b6000819050919050565b612f6881612f55565b82525050565b6000602082019050612f836000830184612f5f565b92915050565b600060208284031215612f9f57612f9e612bff565b5b6000612fad84828501612c20565b91505092915050565b60008115159050919050565b612fcb81612fb6565b82525050565b600061014082019050612fe7600083018d612ca7565b612ff4602083018c612ca7565b613001604083018b612bcb565b61300e606083018a612bcb565b61301b6080830189612fc2565b61302860a0830188612ca7565b61303560c0830187612bcb565b61304260e0830186612bcb565b613050610100830185612ca7565b61305e610120830184612bcb565b9b9a5050505050505050505050565b6000806000806080858703121561308757613086612bff565b5b600061309587828801612d9e565b94505060206130a687828801612c20565b93505060406130b787828801612c20565b92505060606130c887828801612c20565b91505092959194509250565b6130dd81612c95565b82525050565b6130ec81612bc1565b82525050565b6130fb81612fb6565b82525050565b6101408201600082015161311860008501826130d4565b50602082015161312b60208501826130d4565b50604082015161313e60408501826130e3565b50606082015161315160608501826130e3565b50608082015161316460808501826130f2565b5060a082015161317760a08501826130d4565b5060c082015161318a60c08501826130e3565b5060e082015161319d60e08501826130e3565b506101008201516131b26101008501826130d4565b506101208201516131c76101208501826130e3565b50505050565b6000610140820190506131e36000830184613101565b92915050565b600081519050919050565b600082825260208201905092915050565b60005b83811015613223578082015181840152602081019050613208565b60008484015250505050565b600061323a826131e9565b61324481856131f4565b9350613254818560208601613205565b61325d81612dbd565b840191505092915050565b60006020820190508181036000830152613282818461322f565b905092915050565b6000602082840312156132a05761329f612bff565b5b60006132ae84828501612d9e565b91505092915050565b600080600080600060a086880312156132d3576132d2612bff565b5b60006132e188828901612d9e565b95505060206132f288828901612d9e565b945050604061330388828901612d9e565b935050606061331488828901612d9e565b925050608061332588828901612c20565b9150509295509295909350565b7f4e6f2061756374696f6e00000000000000000000000000000000000000000000600082015250565b6000613368600a836131f4565b915061337382613332565b602082019050919050565b600060208201905081810360008301526133978161335b565b9050919050565b7f456e646564000000000000000000000000000000000000000000000000000000600082015250565b60006133d46005836131f4565b91506133df8261339e565b602082019050919050565b60006020820190508181036000830152613403816133c7565b9050919050565b7f41756374696f6e206f7665720000000000000000000000000000000000000000600082015250565b6000613440600c836131f4565b915061344b8261340a565b602082019050919050565b6000602082019050818103600083015261346f81613433565b9050919050565b7f5a65726f20626964000000000000000000000000000000000000000000000000600082015250565b60006134ac6008836131f4565b91506134b782613476565b602082019050919050565b600060208201905081810360008301526134db8161349f565b9050919050565b60006060820190506134f76000830186612ca7565b6135046020830185612ca7565b6135116040830184612bcb565b949350505050565b61352281612fb6565b811461352d57600080fd5b50565b60008151905061353f81613519565b92915050565b60006020828403121561355b5761355a612bff565b5b600061356984828501613530565b91505092915050565b7f55534443207472616e7366657246726f6d206661696c65640000000000000000600082015250565b60006135a86018836131f4565b91506135b382613572565b602082019050919050565b600060208201905081810360008301526135d78161359b565b9050919050565b7f426164206475726174696f6e0000000000000000000000000000000000000000600082015250565b6000613614600c836131f4565b915061361f826135de565b602082019050919050565b6000602082019050818103600083015261364381613607565b9050919050565b7f426164206d696e42696455736400000000000000000000000000000000000000600082015250565b6000613680600d836131f4565b915061368b8261364a565b602082019050919050565b600060208201905081810360008301526136af81613673565b9050919050565b7f4e487b7100000000000000000000000000000000000000000000000000000000600052601160045260246000fd5b60006136f082612bc1565b91507fffffffffffffffffffffffffffffffffffffffffffffffffffffffffffffffff8203613722576137216136b6565b5b600182019050919050565b600061373882612bc1565b915061374383612bc1565b925082820190508082111561375b5761375a6136b6565b5b92915050565b60006060820190506137766000830186612bcb565b6137836020830185612bcb565b6137906040830184612bcb565b949350505050565b7f416c726561647920656e64656400000000000000000000000000000000000000600082015250565b60006137ce600d836131f4565b91506137d982613798565b602082019050919050565b600060208201905081810360008301526137fd816137c1565b9050919050565b7f4e6f7420656e6465642079657400000000000000000000000000000000000000600082015250565b600061383a600d836131f4565b915061384582613804565b602082019050919050565b600060208201905081810360008301526138698161382d565b9050919050565b600081905092915050565b50565b600061388b600083613870565b91506138968261387b565b600082019050919050565b60006138ac8261387e565b9150819050919050565b7f5061792073656c6c657220455448206661696c65640000000000000000000000600082015250565b60006138ec6015836131f4565b91506138f7826138b6565b602082019050919050565b6000602082019050818103600083015261391b816138df565b9050919050565b60006040820190506139376000830185612ca7565b6139446020830184612bcb565b9392505050565b7f5061792073656c6c6572204552433230206661696c6564000000000000000000600082015250565b60006139816017836131f4565b915061398c8261394b565b602082019050919050565b600060208201905081810360008301526139b081613974565b9050919050565b60006080820190506139cc6000830187612ca7565b6139d96020830186612ca7565b6139e66040830185612bcb565b6139f36060830184612bcb565b95945050505050565b6000819050919050565b600067ffffffffffffffff82169050919050565b6000613a35613a30613a2b846139fc565b612cd1565b613a06565b9050919050565b613a4581613a1a565b82525050565b6000602082019050613a606000830184613a3c565b92915050565b6000613a7182612bc1565b9150613a7c83612bc1565b9250828202613a8a81612bc1565b91508282048414831517613aa157613aa06136b6565b5b5092915050565b7f4e487b7100000000000000000000000000000000000000000000000000000000600052601260045260246000fd5b6000613ae282612bc1565b9150613aed83612bc1565b925082613afd57613afc613aa8565b5b828204905092915050565b7f42656c6f77206d696e4269645573640000000000000000000000000000000000600082015250565b6000613b3e600f836131f4565b9150613b4982613b08565b602082019050919050565b60006020820190508181036000830152613b6d81613b31565b9050919050565b7f426964206e6f74206869676820656e6f75676800000000000000000000000000600082015250565b6000613baa6013836131f4565b9150613bb582613b74565b602082019050919050565b60006020820190508181036000830152613bd981613b9d565b9050919050565b6000606082019050613bf56000830186612ca7565b613c026020830185612bcb565b613c0f6040830184612bcb565b949350505050565b613c2081612f55565b8114613c2b57600080fd5b50565b600081519050613c3d81613c17565b92915050565b600060208284031215613c5957613c58612bff565b5b6000613c6784828501613c2e565b91505092915050565b600069ffffffffffffffffffff82169050919050565b613c8f81613c70565b8114613c9a57600080fd5b50565b600081519050613cac81613c86565b92915050565b6000819050919050565b613cc581613cb2565b8114613cd057600080fd5b50565b600081519050613ce281613cbc565b92915050565b600081519050613cf781612c09565b92915050565b600080600080600060a08688031215613d1957613d18612bff565b5b6000613d2788828901613c9d565b9550506020613d3888828901613cd3565b9450506040613d4988828901613ce8565b9350506060613d5a88828901613ce8565b9250506080613d6b88828901613c9d565b9150509295509295909350565b7f4f7261636c653a2062616420616e737765720000000000000000000000000000600082015250565b6000613dae6012836131f4565b9150613db982613d78565b602082019050919050565b60006020820190508181036000830152613ddd81613da1565b9050919050565b7f4f7261636c653a207374616c6500000000000000000000000000000000000000600082015250565b6000613e1a600d836131f4565b9150613e2582613de4565b602082019050919050565b60006020820190508181036000830152613e4981613e0d565b9050919050565b600060ff82169050919050565b613e6681613e50565b8114613e7157600080fd5b50565b600081519050613e8381613e5d565b92915050565b600060208284031215613e9f57613e9e612bff565b5b6000613ead84828501613e74565b91505092915050565b6000613ec182613e50565b9150613ecc83613e50565b9250828203905060ff811115613ee557613ee46136b6565b5b92915050565b60008160011c9050919050565b6000808291508390505b6001851115613f4257808604811115613f1e57613f1d6136b6565b5b6001851615613f2d5780820291505b8081029050613f3b85613eeb565b9450613f02565b94509492505050565b600082613f5b5760019050614017565b81613f695760009050614017565b8160018114613f7f5760028114613f8957613fb8565b6001915050614017565b60ff841115613f9b57613f9a6136b6565b5b8360020a915084821115613fb257613fb16136b6565b5b50614017565b5060208310610133831016604e8410600b8410161715613fed5782820a905083811115613fe857613fe76136b6565b5b614017565b613ffa8484846001613ef8565b92509050818404811115614011576140106136b6565b5b81810290505b9392505050565b600061402982612bc1565b915061403483613e50565b92506140617fffffffffffffffffffffffffffffffffffffffffffffffffffffffffffffffff8484613f4b565b905092915050565b7f526566756e6420455448206661696c6564000000000000000000000000000000600082015250565b600061409f6011836131f4565b91506140aa82614069565b602082019050919050565b600060208201905081810360008301526140ce81614092565b9050919050565b7f526566756e64204552433230206661696c656400000000000000000000000000600082015250565b600061410b6013836131f4565b9150614116826140d5565b602082019050919050565b6000602082019050818103600083015261413a816140fe565b9050919050565b600081519050919050565b600061415782614141565b6141618185613870565b9350614171818560208601613205565b80840191505092915050565b6000614189828461414c565b91508190509291505056fea26469706673582212209ac88f5b7afb47d773a53752cf5f2e7517d7e26e2759ccd5ff2b915a9a3d609d64736f6c634300081c0033",
  "linkReferences": {},
  "deployedLinkReferences": {}
}