{
  "_format": "hh-sol-artifact-1",
  "contractName": "MyNFT",
  "sourceName": "contracts/MyNFT.sol",
  "abi": [
    {
      "inputs": [],
      "stateMutability": "nonpayable",
      "type": "constructor"
    },
    {
      "inputs": [
        {
          "internalType": "address",
          "name": "sender",
          "type": "address"
        },
        {
          "internalType": "uint256",
          "name": "tokenId",
          "type": "uint256"
        },
        {
          "internalType": "address",
          "name": "owner",
          "type": "address"
        }
      ],
      "name": "ERC721IncorrectOwner",
      "type": "error"
    },
    {
      "inputs": [
        {
          "internalType": "address",
          "name": "operator",
          "type": "address"
        },
        {
          "internalType": "uint256",
          "name": "tokenId",
          "type": "uint256"
        }
      ],
      "name": "ERC721InsufficientApproval",
      "type": "error"
    },
    {
      "inputs": [
        {
          "internalType": "address",
          "name": "approver",
          "type": "address"
        }
      ],
      "name": "ERC721InvalidApprover",
      "type": "error"
    },
    {
      "inputs": [
        {
          "internalType": "address",
          "name": "operator",
          "type": "address"
        }
      ],
      "name": "ERC721InvalidOperator",
      "type": "error"
    },
    {
      "inputs": [
        {
          "internalType": "address",
          "name": "owner",
          "type": "address"
        }
      ],
      "name": "ERC721InvalidOwner",
      "type": "error"
    },
    {
      "inputs": [
        {
          "internalType": "address",
          "name": "receiver",
          "type": "address"
        }
      ],
      "name": "ERC721InvalidReceiver",
      "type": "error"
    },
    {
      "inputs": [
        {
          "internalType": "address",
          "name": "sender",
          "type": "address"
        }
      ],
      "name": "ERC721InvalidSender",
      "type": "error"
    },
    {
      "inputs": [
        {
          "internalType": "uint256",
          "name": "tokenId",
          "type": "uint256"
        }
      ],
      "name": "ERC721NonexistentToken",
      "type": "error"
    },
    {
      "inputs": [
        {
          "internalType": "address",
          "name": "owner",
          "type": "address"
        }
      ],
      "name": "OwnableInvalidOwner",
      "type": "error"
    },
    {
      "inputs": [
        {
          "internalType": "address",
          "name": "account",
          "type": "address"
        }
      ],
      "name": "OwnableUnauthorizedAccount",
      "type": "error"
    },
    {
      "anonymous": false,
      "inputs": [
        {
          "indexed": true,
          "internalType": "address",
          "name": "owner",
          "type": "address"
        },
        {
          "indexed": true,
          "internalType": "address",
          "name": "approved",
          "type": "address"
        },
        {
          "indexed": true,
          "internalType": "uint256",
          "name": "tokenId",
          "type": "uint256"
        }
      ],
      "name": "Approval",
      "type": "event"
    },
    {
      "anonymous": false,
      "inputs": [
        {
          "indexed": true,
          "internalType": "address",
          "name": "owner",
          "type": "address"
        },
        {
          "indexed": true,
          "internalType": "address",
          "name": "operator",
          "type": "address"
        },
        {
          "indexed": false,
          "internalType": "bool",
          "name": "approved",
          "type": "bool"
        }
      ],
      "name": "ApprovalForAll",
      "type": "event"
    },
    {
      "anonymous": false,
      "inputs": [
        {
          "indexed": true,
          "internalType": "address",
          "name": "previousOwner",
          "type": "address"
        },
        {
          "indexed": true,
          "internalType": "address",
          "name": "newOwner",
          "type": "address"
        }
      ],
      "name": "OwnershipTransferred",
      "type": "event"
    },
    {
      "anonymous": false,
      "inputs": [
        {
          "indexed": true,
          "internalType": "address",
          "name": "from",
          "type": "address"
        },
        {
          "indexed": true,
          "internalType": "address",
          "name": "to",
          "type": "address"
        },
        {
          "indexed": true,
          "internalType": "uint256",
          "name": "tokenId",
          "type": "uint256"
        }
      ],
      "name": "Transfer",
      "type": "event"
    },
    {
      "inputs": [
        {
          "internalType": "address",
          "name": "to",
          "type": "address"
        },
        {
          "internalType": "uint256",
          "name": "tokenId",
          "type": "uint256"
        }
      ],
      "name": "approve",
      "outputs": [],
      "stateMutability": "nonpayable",
      "type": "function"
    },
    {
      "inputs": [
        {
          "internalType": "address",
          "name": "owner",
          "type": "address"
        }
      ],
      "name": "balanceOf",
      "outputs": [
        {
          "internalType": "uint256",
          "name": "",
          "type": "uint256"
        }
      ],
      "stateMutability": "view",
      "type": "function"
    },
    {
      "inputs": [
        {
          "internalType": "uint256",
          "name": "tokenId",
          "type": "uint256"
        }
      ],
      "name": "getApproved",
      "outputs": [
        {
          "internalType": "address",
          "name": "",
          "type": "address"
        }
      ],
      "stateMutability": "view",
      "type": "function"
    },
    {
      "inputs": [
        {
          "internalType": "address",
          "name": "owner",
          "type": "address"
        },
        {
          "internalType": "address",
          "name": "operator",
          "type": "address"
        }
      ],
      "name": "isApprovedForAll",
      "outputs": [
        {
          "internalType": "bool",
          "name": "",
          "type": "bool"
        }
      ],
      "stateMutability": "view",
      "type": "function"
    },
    {
      "inputs": [
        {
          "internalType": "address",
          "name": "to",
          "type": "address"
        }
      ],
      "name": "mint",
      "outputs": [
        {
          "internalType": "uint256",
          "name": "",
          "type": "uint256"
        }
      ],
      "stateMutability": "nonpayable",
      "type": "function"
    },
    {
      "inputs": [],
      "name": "name",
      "outputs": [
        {
          "internalType": "string",
          "name": "",
          "type": "string"
        }
      ],
      "stateMutability": "view",
      "type": "function"
    },
    {
      "inputs": [],
      "name": "nextTokenId",
      "outputs": [
        {
          "internalType": "uint256",
          "name": "",
          "type": "uint256"
        }
      ],
      "stateMutability": "view",
      "type": "function"
    },
    {
      "inputs": [],
      "name": "owner",
      "outputs": [
        {
          "internalType": "address",
          "name": "",
          "type": "address"
        }
      ],
      "stateMutability": "view",
      "type": "function"
    },
    {
      "inputs": [
        {
          "internalType": "uint256",
          "name": "tokenId",
          "type": "uint256"
        }
      ],
      "name": "ownerOf",
      "outputs": [
        {
          "internalType": "address",
          "name": "",
          "type": "address"
        }
      ],
      "stateMutability": "view",
      "type": "function"
    },
    {
      "inputs": [],
      "name": "renounceOwnership",
      "outputs": [],
      "stateMutability": "nonpayable",
      "type": "function"
    },
    {
      "inputs": [
        {
          "internalType": "address",
          "name": "from",
          "type": "address"
        },
        {
          "internalType": "address",
          "name": "to",
          "type": "address"
        },
        {
          "internalType": "uint256",
          "name": "tokenId",
          "type": "uint256"
        }
      ],
      "name": "safeTransferFrom",
      "outputs": [],
      "stateMutability": "nonpayable",
      "type": "function"
    },
    {
      "inputs": [
        {
          "internalType": "address",
          "name": "from",
          "type": "address"
        },
        {
          "internalType": "address",
          "name": "to",
          "type": "address"
        },
        {
          "internalType": "uint256",
          "name": "tokenId",
          "type": "uint256"
        },
        {
          "internalType": "bytes",
          "name": "data",
          "type": "bytes"
        }
      ],
      "name": "safeTransferFrom",
      "outputs": [],
      "stateMutability": "nonpayable",
      "type": "function"
    },
    {
      "inputs": [
        {
          "internalType": "address",
          "name": "operator",
          "type": "address"
        },
        {
          "internalType": "bool",
          "name": "approved",
          "type": "bool"
        }
      ],
      "name": "setApprovalForAll",
      "outputs": [],
      "stateMutability": "nonpayable",
      "type": "function"
    },
    {
      "inputs": [
        {
          "internalType": "bytes4",
          "name": "interfaceId",
          "type": "bytes4"
        }
      ],
      "name": "supportsInterface",
      "outputs": [
        {
          "internalType": "bool",
          "name": "",
          "type": "bool"
        }
      ],
      "stateMutability": "view",
      "type": "function"
    },
    {
      "inputs": [],
      "name": "symbol",
      "outputs": [
        {
          "internalType": "string",
          "name": "",
          "type": "string"
        }
      ],
      "stateMutability": "view",
      "type": "function"
    },
    {
      "inputs": [
        {
          "internalType": "uint256",
          "name": "tokenId",
          "type": "uint256"
        }
      ],
      "name": "tokenURI",
      "outputs": [
        {
          "internalType": "string",
          "name": "",
          "type": "string"
        }
      ],
      "stateMutability": "view",
      "type": "function"
    },
    {
      "inputs": [
        {
          "internalType": "address",
          "name": "from",
          "type": "address"
        },
        {
          "internalType": "address",
          "name": "to",
          "type": "address"
        },
        {
          "internalType": "uint256",
          "name": "tokenId",
          "type": "uint256"
        }
      ],
      "name": "transferFrom",
      "outputs": [],
      "stateMutability": "nonpayable",
      "type": "function"
    },
    {
      "inputs": [
        {
          "internalType": "address",
          "name": "newOwner",
          "type": "address"
        }
      ],
      "name": "transferOwnership",
      "outputs": [],
      "stateMutability": "nonpayable",
      "type": "function"
    }
  ],
  "bytecode": "0x608060405234801561001057600080fd5b50336040518060400160405280600581526020017f4d794e46540000000000000000000000000000000000000000000000000000008152506040518060400160405280600481526020017f4d4e465400000000000000000000000000000000000000000000000000000000815250816000908161008d919061043d565b50806001908161009d919061043d565b505050600073ffffffffffffffffffffffffffffffffffffffff168173ffffffffffffffffffffffffffffffffffffffff16036101125760006040517f1e4fbdf70000000000000000000000000000000000000000000000000000000081526004016101099190610550565b60405180910390fd5b6101218161012760201b60201c565b5061056b565b6000600660009054906101000a900473ffffffffffffffffffffffffffffffffffffffff16905081600660006101000a81548173ffffffffffffffffffffffffffffffffffffffff021916908373ffffffffffffffffffffffffffffffffffffffff1602179055508173ffffffffffffffffffffffffffffffffffffffff168173ffffffffffffffffffffffffffffffffffffffff167f8be0079c531659141344cd1fd0a4f28419497f9722a3daafe3b4186f6b6457e060405160405180910390a35050565b600081519050919050565b7f4e487b7100000000000000000000000000000000000000000000000000000000600052604160045260246000fd5b7f4e487b7100000000000000000000000000000000000000000000000000000000600052602260045260246000fd5b6000600282049050600182168061026e57607f821691505b60208210810361028157610280610227565b5b50919050565b60008190508160005260206000209050919050565b60006020601f8301049050919050565b600082821b905092915050565b6000600883026102e97fffffffffffffffffffffffffffffffffffffffffffffffffffffffffffffffff826102ac565b6102f386836102ac565b95508019841693508086168417925050509392505050565b6000819050919050565b6000819050919050565b600061033a6103356103308461030b565b610315565b61030b565b9050919050565b6000819050919050565b6103548361031f565b61036861036082610341565b8484546102b9565b825550505050565b600090565b61037d610370565b61038881848461034b565b505050565b5b818110156103ac576103a1600082610375565b60018101905061038e565b5050565b601f8211156103f1576103c281610287565b6103cb8461029c565b810160208510156103da578190505b6103ee6103e68561029c565b83018261038d565b50505b505050565b600082821c905092915050565b6000610414600019846008026103f6565b1980831691505092915050565b600061042d8383610403565b9150826002028217905092915050565b610446826101ed565b67ffffffffffffffff81111561045f5761045e6101f8565b5b6104698254610256565b6104748282856103b0565b600060209050601f8311600181146104a75760008415610495578287015190505b61049f8582610421565b865550610507565b601f1984166104b586610287565b60005b828110156104dd578489015182556001820191506020850194506020810190506104b8565b868310156104fa57848901516104f6601f891682610403565b8355505b6001600288020188555050505b505050505050565b600073ffffffffffffffffffffffffffffffffffffffff82169050919050565b600061053a8261050f565b9050919050565b61054a8161052f565b82525050565b60006020820190506105656000830184610541565b92915050565b6121568061057a6000396000f3fe608060405234801561001057600080fd5b50600436106101165760003560e01c8063715018a6116100a2578063a22cb46511610071578063a22cb465146102e1578063b88d4fde146102fd578063c87b56dd14610319578063e985e9c514610349578063f2fde38b1461037957610116565b8063715018a61461027d57806375794a3c146102875780638da5cb5b146102a557806395d89b41146102c357610116565b806323b872dd116100e957806323b872dd146101b557806342842e0e146101d15780636352211e146101ed5780636a6278421461021d57806370a082311461024d57610116565b806301ffc9a71461011b57806306fdde031461014b578063081812fc14610169578063095ea7b314610199575b600080fd5b61013560048036038101906101309190611929565b610395565b6040516101429190611971565b60405180910390f35b610153610477565b6040516101609190611a1c565b60405180910390f35b610183600480360381019061017e9190611a74565b610509565b6040516101909190611ae2565b60405180910390f35b6101b360048036038101906101ae9190611b29565b610525565b005b6101cf60048036038101906101ca9190611b69565b61053b565b005b6101eb60048036038101906101e69190611b69565b61063d565b005b61020760048036038101906102029190611a74565b61065d565b6040516102149190611ae2565b60405180910390f35b61023760048036038101906102329190611bbc565b61066f565b6040516102449190611bf8565b60405180910390f35b61026760048036038101906102629190611bbc565b6106a5565b6040516102749190611bf8565b60405180910390f35b61028561075f565b005b61028f610773565b60405161029c9190611bf8565b60405180910390f35b6102ad610779565b6040516102ba9190611ae2565b60405180910390f35b6102cb6107a3565b6040516102d89190611a1c565b60405180910390f35b6102fb60048036038101906102f69190611c3f565b610835565b005b61031760048036038101906103129190611db4565b61084b565b005b610333600480360381019061032e9190611a74565b610870565b6040516103409190611a1c565b60405180910390f35b610363600480360381019061035e9190611e37565b6108d9565b6040516103709190611971565b60405180910390f35b610393600480360381019061038e9190611bbc565b61096d565b005b60007f80ac58cd000000000000000000000000000000000000000000000000000000007bffffffffffffffffffffffffffffffffffffffffffffffffffffffff1916827bffffffffffffffffffffffffffffffffffffffffffffffffffffffff1916148061046057507f5b5e139f000000000000000000000000000000000000000000000000000000007bffffffffffffffffffffffffffffffffffffffffffffffffffffffff1916827bffffffffffffffffffffffffffffffffffffffffffffffffffffffff1916145b80610470575061046f826109f3565b5b9050919050565b60606000805461048690611ea6565b80601f01602080910402602001604051908101604052809291908181526020018280546104b290611ea6565b80156104ff5780601f106104d4576101008083540402835291602001916104ff565b820191906000526020600020905b8154815290600101906020018083116104e257829003601f168201915b5050505050905090565b600061051482610a5d565b5061051e82610ae5565b9050919050565b6105378282610532610b22565b610b2a565b5050565b600073ffffffffffffffffffffffffffffffffffffffff168273ffffffffffffffffffffffffffffffffffffffff16036105ad5760006040517f64a0ae920000000000000000000000000000000000000000000000000000000081526004016105a49190611ae2565b60405180910390fd5b60006105c183836105bc610b22565b610b3c565b90508373ffffffffffffffffffffffffffffffffffffffff168173ffffffffffffffffffffffffffffffffffffffff1614610637578382826040517f64283d7b00000000000000000000000000000000000000000000000000000000815260040161062e93929190611ed7565b60405180910390fd5b50505050565b6106588383836040518060200160405280600081525061084b565b505050565b600061066882610a5d565b9050919050565b6000610679610d56565b600060076000815461068a90611f3d565b919050819055905061069c8382610ddd565b80915050919050565b60008073ffffffffffffffffffffffffffffffffffffffff168273ffffffffffffffffffffffffffffffffffffffff16036107185760006040517f89c62b6400000000000000000000000000000000000000000000000000000000815260040161070f9190611ae2565b60405180910390fd5b600360008373ffffffffffffffffffffffffffffffffffffffff1673ffffffffffffffffffffffffffffffffffffffff168152602001908152602001600020549050919050565b610767610d56565b6107716000610dfb565b565b60075481565b6000600660009054906101000a900473ffffffffffffffffffffffffffffffffffffffff16905090565b6060600180546107b290611ea6565b80601f01602080910402602001604051908101604052809291908181526020018280546107de90611ea6565b801561082b5780601f106108005761010080835404028352916020019161082b565b820191906000526020600020905b81548152906001019060200180831161080e57829003601f168201915b5050505050905090565b610847610840610b22565b8383610ec1565b5050565b61085684848461053b565b61086a610861610b22565b85858585611030565b50505050565b606061087b82610a5d565b5060006108866111e1565b905060008151116108a657604051806020016040528060008152506108d1565b806108b0846111f8565b6040516020016108c1929190611fc1565b6040516020818303038152906040525b915050919050565b6000600560008473ffffffffffffffffffffffffffffffffffffffff1673ffffffffffffffffffffffffffffffffffffffff16815260200190815260200160002060008373ffffffffffffffffffffffffffffffffffffffff1673ffffffffffffffffffffffffffffffffffffffff16815260200190815260200160002060009054906101000a900460ff16905092915050565b610975610d56565b600073ffffffffffffffffffffffffffffffffffffffff168173ffffffffffffffffffffffffffffffffffffffff16036109e75760006040517f1e4fbdf70000000000000000000000000000000000000000000000000000000081526004016109de9190611ae2565b60405180910390fd5b6109f081610dfb565b50565b60007f01ffc9a7000000000000000000000000000000000000000000000000000000007bffffffffffffffffffffffffffffffffffffffffffffffffffffffff1916827bffffffffffffffffffffffffffffffffffffffffffffffffffffffff1916149050919050565b600080610a69836112c6565b9050600073ffffffffffffffffffffffffffffffffffffffff168173ffffffffffffffffffffffffffffffffffffffff1603610adc57826040517f7e273289000000000000000000000000000000000000000000000000000000008152600401610ad39190611bf8565b60405180910390fd5b80915050919050565b60006004600083815260200190815260200160002060009054906101000a900473ffffffffffffffffffffffffffffffffffffffff169050919050565b600033905090565b610b378383836001611303565b505050565b600080610b48846112c6565b9050600073ffffffffffffffffffffffffffffffffffffffff168373ffffffffffffffffffffffffffffffffffffffff1614610b8a57610b898184866114c8565b5b600073ffffffffffffffffffffffffffffffffffffffff168173ffffffffffffffffffffffffffffffffffffffff1614610c1b57610bcc600085600080611303565b6001600360008373ffffffffffffffffffffffffffffffffffffffff1673ffffffffffffffffffffffffffffffffffffffff168152602001908152602001600020600082825403925050819055505b600073ffffffffffffffffffffffffffffffffffffffff168573ffffffffffffffffffffffffffffffffffffffff1614610c9e576001600360008773ffffffffffffffffffffffffffffffffffffffff1673ffffffffffffffffffffffffffffffffffffffff168152602001908152602001600020600082825401925050819055505b846002600086815260200190815260200160002060006101000a81548173ffffffffffffffffffffffffffffffffffffffff021916908373ffffffffffffffffffffffffffffffffffffffff160217905550838573ffffffffffffffffffffffffffffffffffffffff168273ffffffffffffffffffffffffffffffffffffffff167fddf252ad1be2c89b69c2b068fc378daa952ba7f163c4a11628f55a4df523b3ef60405160405180910390a4809150509392505050565b610d5e610b22565b73ffffffffffffffffffffffffffffffffffffffff16610d7c610779565b73ffffffffffffffffffffffffffffffffffffffff1614610ddb57610d9f610b22565b6040517f118cdaa7000000000000000000000000000000000000000000000000000000008152600401610dd29190611ae2565b60405180910390fd5b565b610df782826040518060200160405280600081525061158c565b5050565b6000600660009054906101000a900473ffffffffffffffffffffffffffffffffffffffff16905081600660006101000a81548173ffffffffffffffffffffffffffffffffffffffff021916908373ffffffffffffffffffffffffffffffffffffffff1602179055508173ffffffffffffffffffffffffffffffffffffffff168173ffffffffffffffffffffffffffffffffffffffff167f8be0079c531659141344cd1fd0a4f28419497f9722a3daafe3b4186f6b6457e060405160405180910390a35050565b600073ffffffffffffffffffffffffffffffffffffffff168273ffffffffffffffffffffffffffffffffffffffff1603610f3257816040517f5b08ba18000000000000000000000000000000000000000000000000000000008152600401610f299190611ae2565b60405180910390fd5b80600560008573ffffffffffffffffffffffffffffffffffffffff1673ffffffffffffffffffffffffffffffffffffffff16815260200190815260200160002060008473ffffffffffffffffffffffffffffffffffffffff1673ffffffffffffffffffffffffffffffffffffffff16815260200190815260200160002060006101000a81548160ff0219169083151502179055508173ffffffffffffffffffffffffffffffffffffffff168373ffffffffffffffffffffffffffffffffffffffff167f17307eab39ab6107e8899845ad3d59bd9653f200f220920489ca2b5937696c31836040516110239190611971565b60405180910390a3505050565b60008373ffffffffffffffffffffffffffffffffffffffff163b11156111da578273ffffffffffffffffffffffffffffffffffffffff1663150b7a02868685856040518563ffffffff1660e01b815260040161108f949392919061203a565b6020604051808303816000875af19250505080156110cb57506040513d601f19601f820116820180604052508101906110c8919061209b565b60015b61114f573d80600081146110fb576040519150601f19603f3d011682016040523d82523d6000602084013e611100565b606091505b50600081510361114757836040517f64a0ae9200000000000000000000000000000000000000000000000000000000815260040161113e9190611ae2565b60405180910390fd5b805160208201fd5b63150b7a0260e01b7bffffffffffffffffffffffffffffffffffffffffffffffffffffffff1916817bffffffffffffffffffffffffffffffffffffffffffffffffffffffff1916146111d857836040517f64a0ae920000000000000000000000000000000000000000000000000000000081526004016111cf9190611ae2565b60405180910390fd5b505b5050505050565b606060405180602001604052806000815250905090565b606060006001611207846115b0565b01905060008167ffffffffffffffff81111561122657611225611c89565b5b6040519080825280601f01601f1916602001820160405280156112585781602001600182028036833780820191505090505b509050600082602083010190505b6001156112bb578080600190039150507f3031323334353637383961626364656600000000000000000000000000000000600a86061a8153600a85816112af576112ae6120c8565b5b04945060008503611266575b819350505050919050565b60006002600083815260200190815260200160002060009054906101000a900473ffffffffffffffffffffffffffffffffffffffff169050919050565b808061133c5750600073ffffffffffffffffffffffffffffffffffffffff168273ffffffffffffffffffffffffffffffffffffffff1614155b1561147057600061134c84610a5d565b9050600073ffffffffffffffffffffffffffffffffffffffff168373ffffffffffffffffffffffffffffffffffffffff16141580156113b757508273ffffffffffffffffffffffffffffffffffffffff168173ffffffffffffffffffffffffffffffffffffffff1614155b80156113ca57506113c881846108d9565b155b1561140c57826040517fa9fbf51f0000000000000000000000000000000000000000000000000000000081526004016114039190611ae2565b60405180910390fd5b811561146e57838573ffffffffffffffffffffffffffffffffffffffff168273ffffffffffffffffffffffffffffffffffffffff167f8c5be1e5ebec7d5bd14f71427d1e84f3dd0314c0f7b2291e5b200ac8c7c3b92560405160405180910390a45b505b836004600085815260200190815260200160002060006101000a81548173ffffffffffffffffffffffffffffffffffffffff021916908373ffffffffffffffffffffffffffffffffffffffff16021790555050505050565b6114d3838383611703565b61158757600073ffffffffffffffffffffffffffffffffffffffff168373ffffffffffffffffffffffffffffffffffffffff160361154857806040517f7e27328900000000000000000000000000000000000000000000000000000000815260040161153f9190611bf8565b60405180910390fd5b81816040517f177e802f00000000000000000000000000000000000000000000000000000000815260040161157e9291906120f7565b60405180910390fd5b505050565b61159683836117c4565b6115ab6115a1610b22565b6000858585611030565b505050565b600080600090507a184f03e93ff9f4daa797ed6e38ed64bf6a1f010000000000000000831061160e577a184f03e93ff9f4daa797ed6e38ed64bf6a1f0100000000000000008381611604576116036120c8565b5b0492506040810190505b6d04ee2d6d415b85acef8100000000831061164b576d04ee2d6d415b85acef81000000008381611641576116406120c8565b5b0492506020810190505b662386f26fc10000831061167a57662386f26fc1000083816116705761166f6120c8565b5b0492506010810190505b6305f5e10083106116a3576305f5e1008381611699576116986120c8565b5b0492506008810190505b61271083106116c85761271083816116be576116bd6120c8565b5b0492506004810190505b606483106116eb57606483816116e1576116e06120c8565b5b0492506002810190505b600a83106116fa576001810190505b80915050919050565b60008073ffffffffffffffffffffffffffffffffffffffff168373ffffffffffffffffffffffffffffffffffffffff16141580156117bb57508273ffffffffffffffffffffffffffffffffffffffff168473ffffffffffffffffffffffffffffffffffffffff16148061177c575061177b84846108d9565b5b806117ba57508273ffffffffffffffffffffffffffffffffffffffff166117a283610ae5565b73ffffffffffffffffffffffffffffffffffffffff16145b5b90509392505050565b600073ffffffffffffffffffffffffffffffffffffffff168273ffffffffffffffffffffffffffffffffffffffff16036118365760006040517f64a0ae9200000000000000000000000000000000000000000000000000000000815260040161182d9190611ae2565b60405180910390fd5b600061184483836000610b3c565b9050600073ffffffffffffffffffffffffffffffffffffffff168173ffffffffffffffffffffffffffffffffffffffff16146118b85760006040517f73c6ac6e0000000000000000000000000000000000000000000000000000000081526004016118af9190611ae2565b60405180910390fd5b505050565b6000604051905090565b600080fd5b600080fd5b60007fffffffff0000000000000000000000000000000000000000000000000000000082169050919050565b611906816118d1565b811461191157600080fd5b50565b600081359050611923816118fd565b92915050565b60006020828403121561193f5761193e6118c7565b5b600061194d84828501611914565b91505092915050565b60008115159050919050565b61196b81611956565b82525050565b60006020820190506119866000830184611962565b92915050565b600081519050919050565b600082825260208201905092915050565b60005b838110156119c65780820151818401526020810190506119ab565b60008484015250505050565b6000601f19601f8301169050919050565b60006119ee8261198c565b6119f88185611997565b9350611a088185602086016119a8565b611a11816119d2565b840191505092915050565b60006020820190508181036000830152611a3681846119e3565b905092915050565b6000819050919050565b611a5181611a3e565b8114611a5c57600080fd5b50565b600081359050611a6e81611a48565b92915050565b600060208284031215611a8a57611a896118c7565b5b6000611a9884828501611a5f565b91505092915050565b600073ffffffffffffffffffffffffffffffffffffffff82169050919050565b6000611acc82611aa1565b9050919050565b611adc81611ac1565b82525050565b6000602082019050611af76000830184611ad3565b92915050565b611b0681611ac1565b8114611b1157600080fd5b50565b600081359050611b2381611afd565b92915050565b60008060408385031215611b4057611b3f6118c7565b5b6000611b4e85828601611b14565b9250506020611b5f85828601611a5f565b9150509250929050565b600080600060608486031215611b8257611b816118c7565b5b6000611b9086828701611b14565b9350506020611ba186828701611b14565b9250506040611bb286828701611a5f565b9150509250925092565b600060208284031215611bd257611bd16118c7565b5b6000611be084828501611b14565b91505092915050565b611bf281611a3e565b82525050565b6000602082019050611c0d6000830184611be9565b92915050565b611c1c81611956565b8114611c2757600080fd5b50565b600081359050611c3981611c13565b92915050565b60008060408385031215611c5657611c556118c7565b5b6000611c6485828601611b14565b9250506020611c7585828601611c2a565b9150509250929050565b600080fd5b600080fd5b7f4e487b7100000000000000000000000000000000000000000000000000000000600052604160045260246000fd5b611cc1826119d2565b810181811067ffffffffffffffff82111715611ce057611cdf611c89565b5b80604052505050565b6000611cf36118bd565b9050611cff8282611cb8565b919050565b600067ffffffffffffffff821115611d1f57611d1e611c89565b5b611d28826119d2565b9050602081019050919050565b82818337600083830152505050565b6000611d57611d5284611d04565b611ce9565b905082815260208101848484011115611d7357611d72611c84565b5b611d7e848285611d35565b509392505050565b600082601f830112611d9b57611d9a611c7f565b5b8135611dab848260208601611d44565b91505092915050565b60008060008060808587031215611dce57611dcd6118c7565b5b6000611ddc87828801611b14565b9450506020611ded87828801611b14565b9350506040611dfe87828801611a5f565b925050606085013567ffffffffffffffff811115611e1f57611e1e6118cc565b5b611e2b87828801611d86565b91505092959194509250565b60008060408385031215611e4e57611e4d6118c7565b5b6000611e5c85828601611b14565b9250506020611e6d85828601611b14565b9150509250929050565b7f4e487b7100000000000000000000000000000000000000000000000000000000600052602260045260246000fd5b60006002820490506001821680611ebe57607f821691505b602082108103611ed157611ed0611e77565b5b50919050565b6000606082019050611eec6000830186611ad3565b611ef96020830185611be9565b611f066040830184611ad3565b949350505050565b7f4e487b7100000000000000000000000000000000000000000000000000000000600052601160045260246000fd5b6000611f4882611a3e565b91507fffffffffffffffffffffffffffffffffffffffffffffffffffffffffffffffff8203611f7a57611f79611f0e565b5b600182019050919050565b600081905092915050565b6000611f9b8261198c565b611fa58185611f85565b9350611fb58185602086016119a8565b80840191505092915050565b6000611fcd8285611f90565b9150611fd98284611f90565b91508190509392505050565b600081519050919050565b600082825260208201905092915050565b600061200c82611fe5565b6120168185611ff0565b93506120268185602086016119a8565b61202f816119d2565b840191505092915050565b600060808201905061204f6000830187611ad3565b61205c6020830186611ad3565b6120696040830185611be9565b818103606083015261207b8184612001565b905095945050505050565b600081519050612095816118fd565b92915050565b6000602082840312156120b1576120b06118c7565b5b60006120bf84828501612086565b91505092915050565b7f4e487b7100000000000000000000000000000000000000000000000000000000600052601260045260246000fd5b600060408201905061210c6000830185611ad3565b6121196020830184611be9565b939250505056fea2646970667358221220538c5ef2ab645836466a7c606dbaac8760ba3280814de06dc40698fcb08bf1aa64736f6c634300081c0033",
  "linkReferences": {},
  "deployedLinkReferences": {}
}