{
  "_format": "hh-sol-artifact-1",
  "contractName": "NFTAuctionMarketUUPS_V1",
  "sourceName": "contracts/NFTAuctionMarketUUPS_V1.sol",
  "abi": [
    {
      "inputs": [],
      "stateMutability": "nonpayable",
      "type": "constructor"
    },
    {
      "inputs": [
        {
          "internalType": "address",
          "name": "target",
          "type": "address"
        }
      ],
      "name": "AddressEmptyCode",
      "type": "error"
    },
    {
      "inputs": [
        {
          "internalType": "address",
          "name": "implementation",
          "type": "address"
        }
      ],
      "name": "ERC1967InvalidImplementation",
      "type": "error"
    },
    {
      "inputs": [],
      "name": "ERC1967NonPayable",
      "type": "error"
    },
    {
      "inputs": [],
      "name": "FailedCall",
      "type": "error"
    },
    {
      "inputs": [],
      "name": "InvalidInitialization",
      "type": "error"
    },
    {
      "inputs": [],
      "name": "NotInitializing",
      "type": "error"
    },
    {
      "inputs": [
        {
          "internalType": "address",
          "name": "owner",
          "type": "address"
        }
      ],
      "name": "OwnableInvalidOwner",
      "type": "error"
    },
    {
      "inputs": [
        {
          "internalType": "address",
          "name": "account",
          "type": "address"
        }
      ],
      "name": "OwnableUnauthorizedAccount",
      "type": "error"
    },
    {
      "inputs": [],
      "name": "ReentrancyGuardReentrantCall",
      "type": "error"
    },
    {
      "inputs": [],
      "name": "UUPSUnauthorizedCallContext",
      "type": "error"
    },
    {
      "inputs": [
        {
          "internalType": "bytes32",
          "name": "slot",
          "type": "bytes32"
        }
      ],
      "name": "UUPSUnsupportedProxiableUUID",
      "type": "error"
    },
    {
      "anonymous": false,
      "inputs": [
        {
          "indexed": true,
          "internalType": "uint256",
          "name": "auctionId",
          "type": "uint256"
        }
      ],
      "name": "AuctionCancelled",
      "type": "event"
    },
    {
      "anonymous": false,
      "inputs": [
        {
          "indexed": true,
          "internalType": "uint256",
          "name": "auctionId",
          "type": "uint256"
        },
        {
          "indexed": true,
          "internalType": "address",
          "name": "seller",
          "type": "address"
        },
        {
          "indexed": true,
          "internalType": "address",
          "name": "nft",
          "type": "address"
        },
        {
          "indexed": false,
          "internalType": "uint256",
          "name": "tokenId",
          "type": "uint256"
        },
        {
          "indexed": false,
          "internalType": "uint256",
          "name": "endTime",
          "type": "uint256"
        },
        {
          "indexed": false,
          "internalType": "uint256",
          "name": "minBidUsd18",
          "type": "uint256"
        }
      ],
      "name": "AuctionCreated",
      "type": "event"
    },
    {
      "anonymous": false,
      "inputs": [
        {
          "indexed": true,
          "internalType": "uint256",
          "name": "auctionId",
          "type": "uint256"
        },
        {
          "indexed": false,
          "internalType": "address",
          "name": "winner",
          "type": "address"
        },
        {
          "indexed": false,
          "internalType": "address",
          "name": "payToken",
          "type": "address"
        },
        {
          "indexed": false,
          "internalType": "uint256",
          "name": "payAmount",
          "type": "uint256"
        },
        {
          "indexed": false,
          "internalType": "uint256",
          "name": "payUsd18",
          "type": "uint256"
        }
      ],
      "name": "AuctionEnded",
      "type": "event"
    },
    {
      "anonymous": false,
      "inputs": [
        {
          "indexed": true,
          "internalType": "uint256",
          "name": "auctionId",
          "type": "uint256"
        },
        {
          "indexed": true,
          "internalType": "address",
          "name": "bidder",
          "type": "address"
        },
        {
          "indexed": false,
          "internalType": "address",
          "name": "bidToken",
          "type": "address"
        },
        {
          "indexed": false,
          "internalType": "uint256",
          "name": "bidAmount",
          "type": "uint256"
        },
        {
          "indexed": false,
          "internalType": "uint256",
          "name": "bidUsd18",
          "type": "uint256"
        }
      ],
      "name": "BidPlaced",
      "type": "event"
    },
    {
      "anonymous": false,
      "inputs": [
        {
          "indexed": false,
          "internalType": "uint64",
          "name": "version",
          "type": "uint64"
        }
      ],
      "name": "Initialized",
      "type": "event"
    },
    {
      "anonymous": false,
      "inputs": [
        {
          "indexed": true,
          "internalType": "address",
          "name": "previousOwner",
          "type": "address"
        },
        {
          "indexed": true,
          "internalType": "address",
          "name": "newOwner",
          "type": "address"
        }
      ],
      "name": "OwnershipTransferred",
      "type": "event"
    },
    {
      "anonymous": false,
      "inputs": [
        {
          "indexed": true,
          "internalType": "address",
          "name": "implementation",
          "type": "address"
        }
      ],
      "name": "Upgraded",
      "type": "event"
    },
    {
      "inputs": [],
      "name": "NATIVE_TOKEN",
      "outputs": [
        {
          "internalType": "address",
          "name": "",
          "type": "address"
        }
      ],
      "stateMutability": "view",
      "type": "function"
    },
    {
      "inputs": [],
      "name": "UPGRADE_INTERFACE_VERSION",
      "outputs": [
        {
          "internalType": "string",
          "name": "",
          "type": "string"
        }
      ],
      "stateMutability": "view",
      "type": "function"
    },
    {
      "inputs": [
        {
          "internalType": "uint256",
          "name": "",
          "type": "uint256"
        }
      ],
      "name": "auctions",
      "outputs": [
        {
          "internalType": "address",
          "name": "seller",
          "type": "address"
        },
        {
          "internalType": "address",
          "name": "nft",
          "type": "address"
        },
        {
          "internalType": "uint256",
          "name": "tokenId",
          "type": "uint256"
        },
        {
          "internalType": "uint256",
          "name": "endTime",
          "type": "uint256"
        },
        {
          "internalType": "bool",
          "name": "ended",
          "type": "bool"
        },
        {
          "internalType": "address",
          "name": "highestBidToken",
          "type": "address"
        },
        {
          "internalType": "uint256",
          "name": "highestBidAmount",
          "type": "uint256"
        },
        {
          "internalType": "uint256",
          "name": "highestBidUsd18",
          "type": "uint256"
        },
        {
          "internalType": "address",
          "name": "highestBidder",
          "type": "address"
        },
        {
          "internalType": "uint256",
          "name": "minBidUsd18",
          "type": "uint256"
        }
      ],
      "stateMutability": "view",
      "type": "function"
    },
    {
      "inputs": [
        {
          "internalType": "uint256",
          "name": "auctionId",
          "type": "uint256"
        }
      ],
      "name": "bidEth",
      "outputs": [],
      "stateMutability": "payable",
      "type": "function"
    },
    {
      "inputs": [
        {
          "internalType": "uint256",
          "name": "auctionId",
          "type": "uint256"
        },
        {
          "internalType": "uint256",
          "name": "usdcAmount",
          "type": "uint256"
        }
      ],
      "name": "bidUSDC",
      "outputs": [],
      "stateMutability": "nonpayable",
      "type": "function"
    },
    {
      "inputs": [
        {
          "internalType": "address",
          "name": "nft",
          "type": "address"
        },
        {
          "internalType": "uint256",
          "name": "tokenId",
          "type": "uint256"
        },
        {
          "internalType": "uint256",
          "name": "durationSeconds",
          "type": "uint256"
        },
        {
          "internalType": "uint256",
          "name": "minBidUsd18",
          "type": "uint256"
        }
      ],
      "name": "createAuction",
      "outputs": [
        {
          "internalType": "uint256",
          "name": "auctionId",
          "type": "uint256"
        }
      ],
      "stateMutability": "nonpayable",
      "type": "function"
    },
    {
      "inputs": [
        {
          "internalType": "uint256",
          "name": "auctionId",
          "type": "uint256"
        }
      ],
      "name": "endAuction",
      "outputs": [],
      "stateMutability": "nonpayable",
      "type": "function"
    },
    {
      "inputs": [],
      "name": "ethUsdFeed",
      "outputs": [
        {
          "internalType": "contract AggregatorV3Interface",
          "name": "",
          "type": "address"
        }
      ],
      "stateMutability": "view",
      "type": "function"
    },
    {
      "inputs": [],
      "name": "feeBps",
      "outputs": [
        {
          "internalType": "uint256",
          "name": "",
          "type": "uint256"
        }
      ],
      "stateMutability": "view",
      "type": "function"
    },
    {
      "inputs": [],
      "name": "feeRecipient",
      "outputs": [
        {
          "internalType": "address",
          "name": "",
          "type": "address"
        }
      ],
      "stateMutability": "view",
      "type": "function"
    },
    {
      "inputs": [
        {
          "internalType": "uint256",
          "name": "auctionId",
          "type": "uint256"
        }
      ],
      "name": "getAuction",
      "outputs": [
        {
          "components": [
            {
              "internalType": "address",
              "name": "seller",
              "type": "address"
            },
            {
              "internalType": "address",
              "name": "nft",
              "type": "address"
            },
            {
              "internalType": "uint256",
              "name": "tokenId",
              "type": "uint256"
            },
            {
              "internalType": "uint256",
              "name": "endTime",
              "type": "uint256"
            },
            {
              "internalType": "bool",
              "name": "ended",
              "type": "bool"
            },
            {
              "internalType": "address",
              "name": "highestBidToken",
              "type": "address"
            },
            {
              "internalType": "uint256",
              "name": "highestBidAmount",
              "type": "uint256"
            },
            {
              "internalType": "uint256",
              "name": "highestBidUsd18",
              "type": "uint256"
            },
            {
              "internalType": "address",
              "name": "highestBidder",
              "type": "address"
            },
            {
              "internalType": "uint256",
              "name": "minBidUsd18",
              "type": "uint256"
            }
          ],
          "internalType": "struct NFTAuctionMarketUUPS_V1.Auction",
          "name": "",
          "type": "tuple"
        }
      ],
      "stateMutability": "view",
      "type": "function"
    },
    {
      "inputs": [
        {
          "internalType": "address",
          "name": "_ethUsdFeed",
          "type": "address"
        },
        {
          "internalType": "address",
          "name": "_usdc",
          "type": "address"
        },
        {
          "internalType": "address",
          "name": "_usdcUsdFeed",
          "type": "address"
        },
        {
          "internalType": "address",
          "name": "_feeRecipient",
          "type": "address"
        },
        {
          "internalType": "uint256",
          "name": "_feeBps",
          "type": "uint256"
        }
      ],
      "name": "initialize",
      "outputs": [],
      "stateMutability": "nonpayable",
      "type": "function"
    },
    {
      "inputs": [],
      "name": "nextAuctionId",
      "outputs": [
        {
          "internalType": "uint256",
          "name": "",
          "type": "uint256"
        }
      ],
      "stateMutability": "view",
      "type": "function"
    },
    {
      "inputs": [],
      "name": "owner",
      "outputs": [
        {
          "internalType": "address",
          "name": "",
          "type": "address"
        }
      ],
      "stateMutability": "view",
      "type": "function"
    },
    {
      "inputs": [],
      "name": "proxiableUUID",
      "outputs": [
        {
          "internalType": "bytes32",
          "name": "",
          "type": "bytes32"
        }
      ],
      "stateMutability": "view",
      "type": "function"
    },
    {
      "inputs": [],
      "name": "renounceOwnership",
      "outputs": [],
      "stateMutability": "nonpayable",
      "type": "function"
    },
    {
      "inputs": [
        {
          "internalType": "address",
          "name": "newOwner",
          "type": "address"
        }
      ],
      "name": "transferOwnership",
      "outputs": [],
      "stateMutability": "nonpayable",
      "type": "function"
    },
    {
      "inputs": [
        {
          "internalType": "address",
          "name": "newImplementation",
          "type": "address"
        },
        {
          "internalType": "bytes",
          "name": "data",
          "type": "bytes"
        }
      ],
      "name": "upgradeToAndCall",
      "outputs": [],
      "stateMutability": "payable",
      "type": "function"
    },
    {
      "inputs": [],
      "name": "usdc",
      "outputs": [
        {
          "internalType": "contract IERC20",
          "name": "",
          "type": "address"
        }
      ],
      "stateMutability": "view",
      "type": "function"
    },
    {
      "inputs": [],
      "name": "usdcUsdFeed",
      "outputs": [
        {
          "internalType": "contract AggregatorV3Interface",
          "name": "",
          "type": "address"
        }
      ],
      "stateMutability": "view",
      "type": "function"
    },
    {
      "stateMutability": "payable",
      "type": "receive"
    }
  ],
  "bytecode": "0x60a06040523073ffffffffffffffffffffffffffffffffffffffff1660809073ffffffffffffffffffffffffffffffffffffffff1681525034801561004357600080fd5b5061005261005760201b60201c565b6101de565b600061006761015b60201b60201c565b90508060000160089054906101000a900460ff16156100b2576040517ff92ee8a900000000000000000000000000000000000000000000000000000000815260040160405180910390fd5b67ffffffffffffffff80168160000160009054906101000a900467ffffffffffffffff1667ffffffffffffffff16146101585767ffffffffffffffff8160000160006101000a81548167ffffffffffffffff021916908367ffffffffffffffff1602179055507fc7f505b2f371ae2175ee4913f4499e1f2633a7b5936321eed1cdaeb6115181d267ffffffffffffffff60405161014f91906101c3565b60405180910390a15b50565b60008061016c61017560201b60201c565b90508091505090565b60007ff0c57e16840df040f15088dc2f81fe391c3923bec73e23a9662efc9c229c6a0060001b905090565b600067ffffffffffffffff82169050919050565b6101bd816101a0565b82525050565b60006020820190506101d860008301846101b4565b92915050565b60805161418b61020760003960008181611dac01528181611e010152611fbc015261418b6000f3fe6080604052600436106101235760003560e01c806361beb1d7116100a0578063ad3cb1cc11610064578063ad3cb1cc146103bf578063b9a2de3a146103ea578063f2fde38b14610413578063f7013ef61461043c578063fc528482146104655761012a565b806361beb1d7146102d8578063715018a61461031557806378bd79351461032c5780638009b7bd146103695780638da5cb5b146103945761012a565b80634d9a75e5116100e75780634d9a75e5146102045780634f1ef2861461022f57806352d1902d1461024b57806355c623c614610276578063571a26a0146102925761012a565b806324a9d8531461012f5780632ddbd42c1461015a57806331f7d964146101835780633e413bee146101ae57806346904840146101d95761012a565b3661012a57005b600080fd5b34801561013b57600080fd5b50610144610490565b6040516101519190612b9b565b60405180910390f35b34801561016657600080fd5b50610181600480360381019061017c9190612bf6565b610496565b005b34801561018f57600080fd5b5061019861074f565b6040516101a59190612c77565b60405180910390f35b3480156101ba57600080fd5b506101c3610754565b6040516101d09190612cf1565b60405180910390f35b3480156101e557600080fd5b506101ee61077a565b6040516101fb9190612c77565b60405180910390f35b34801561021057600080fd5b506102196107a0565b6040516102269190612d2d565b60405180910390f35b61024960048036038101906102449190612eba565b6107c6565b005b34801561025757600080fd5b506102606107e5565b60405161026d9190612f2f565b60405180910390f35b610290600480360381019061028b9190612f4a565b610818565b005b34801561029e57600080fd5b506102b960048036038101906102b49190612f4a565b6109ce565b6040516102cf9a99989796959493929190612f92565b60405180910390f35b3480156102e457600080fd5b506102ff60048036038101906102fa919061302e565b610aaf565b60405161030c9190612b9b565b60405180910390f35b34801561032157600080fd5b5061032a610e8a565b005b34801561033857600080fd5b50610353600480360381019061034e9190612f4a565b610e9e565b604051610360919061318e565b60405180910390f35b34801561037557600080fd5b5061037e611071565b60405161038b9190612d2d565b60405180910390f35b3480156103a057600080fd5b506103a9611097565b6040516103b69190612c77565b60405180910390f35b3480156103cb57600080fd5b506103d46110cf565b6040516103e19190613229565b60405180910390f35b3480156103f657600080fd5b50610411600480360381019061040c9190612f4a565b611108565b005b34801561041f57600080fd5b5061043a6004803603810190610435919061324b565b611748565b005b34801561044857600080fd5b50610463600480360381019061045e9190613278565b6117ce565b005b34801561047157600080fd5b5061047a611a7c565b6040516104879190612b9b565b60405180910390f35b60065481565b61049e611a82565b6000600160008481526020019081526020016000209050600073ffffffffffffffffffffffffffffffffffffffff168160000160009054906101000a900473ffffffffffffffffffffffffffffffffffffffff1673ffffffffffffffffffffffffffffffffffffffff1603610548576040517f08c379a000000000000000000000000000000000000000000000000000000000815260040161053f9061333f565b60405180910390fd5b8060040160009054906101000a900460ff161561059a576040517f08c379a0000000000000000000000000000000000000000000000000000000008152600401610591906133ab565b60405180910390fd5b806003015442106105e0576040517f08c379a00000000000000000000000000000000000000000000000000000000081526004016105d790613417565b60405180910390fd5b60008211610623576040517f08c379a000000000000000000000000000000000000000000000000000000000815260040161061a90613483565b60405180910390fd5b600061062e83611ad9565b9050600260009054906101000a900473ffffffffffffffffffffffffffffffffffffffff1673ffffffffffffffffffffffffffffffffffffffff166323b872dd3330866040518463ffffffff1660e01b815260040161068f939291906134a3565b6020604051808303816000875af11580156106ae573d6000803e3d6000fd5b505050506040513d601f19601f820116820180604052508101906106d29190613506565b610711576040517f08c379a00000000000000000000000000000000000000000000000000000000081526004016107089061357f565b60405180910390fd5b610741828533600260009054906101000a900473ffffffffffffffffffffffffffffffffffffffff168786611b61565b505061074b611d91565b5050565b600081565b600260009054906101000a900473ffffffffffffffffffffffffffffffffffffffff1681565b600560009054906101000a900473ffffffffffffffffffffffffffffffffffffffff1681565b600460009054906101000a900473ffffffffffffffffffffffffffffffffffffffff1681565b6107ce611daa565b6107d782611e90565b6107e18282611e9b565b5050565b60006107ef611fba565b7f360894a13ba1a3210667c828492db98dca3e2076cc3735a920a3ca505d382bbc60001b905090565b610820611a82565b6000600160008381526020019081526020016000209050600073ffffffffffffffffffffffffffffffffffffffff168160000160009054906101000a900473ffffffffffffffffffffffffffffffffffffffff1673ffffffffffffffffffffffffffffffffffffffff16036108ca576040517f08c379a00000000000000000000000000000000000000000000000000000000081526004016108c19061333f565b60405180910390fd5b8060040160009054906101000a900460ff161561091c576040517f08c379a0000000000000000000000000000000000000000000000000000000008152600401610913906133ab565b60405180910390fd5b80600301544210610962576040517f08c379a000000000000000000000000000000000000000000000000000000000815260040161095990613417565b60405180910390fd5b600034116109a5576040517f08c379a000000000000000000000000000000000000000000000000000000000815260040161099c90613483565b60405180910390fd5b60006109b034612041565b90506109c182843360003486611b61565b50506109cb611d91565b50565b60016020528060005260406000206000915090508060000160009054906101000a900473ffffffffffffffffffffffffffffffffffffffff16908060010160009054906101000a900473ffffffffffffffffffffffffffffffffffffffff16908060020154908060030154908060040160009054906101000a900460ff16908060040160019054906101000a900473ffffffffffffffffffffffffffffffffffffffff16908060050154908060060154908060070160009054906101000a900473ffffffffffffffffffffffffffffffffffffffff1690806008015490508a565b6000610ab9611a82565b60008311610afc576040517f08c379a0000000000000000000000000000000000000000000000000000000008152600401610af3906135eb565b60405180910390fd5b60008211610b3f576040517f08c379a0000000000000000000000000000000000000000000000000000000008152600401610b3690613657565b60405180910390fd5b6000808154610b4d906136a6565b91905081905590506040518061014001604052803373ffffffffffffffffffffffffffffffffffffffff1681526020018673ffffffffffffffffffffffffffffffffffffffff1681526020018581526020018442610bab91906136ee565b8152602001600015158152602001600073ffffffffffffffffffffffffffffffffffffffff1681526020016000815260200160008152602001600073ffffffffffffffffffffffffffffffffffffffff168152602001838152506001600083815260200190815260200160002060008201518160000160006101000a81548173ffffffffffffffffffffffffffffffffffffffff021916908373ffffffffffffffffffffffffffffffffffffffff16021790555060208201518160010160006101000a81548173ffffffffffffffffffffffffffffffffffffffff021916908373ffffffffffffffffffffffffffffffffffffffff160217905550604082015181600201556060820151816003015560808201518160040160006101000a81548160ff02191690831515021790555060a08201518160040160016101000a81548173ffffffffffffffffffffffffffffffffffffffff021916908373ffffffffffffffffffffffffffffffffffffffff16021790555060c0820151816005015560e082015181600601556101008201518160070160006101000a81548173ffffffffffffffffffffffffffffffffffffffff021916908373ffffffffffffffffffffffffffffffffffffffff16021790555061012082015181600801559050508473ffffffffffffffffffffffffffffffffffffffff166323b872dd3330876040518463ffffffff1660e01b8152600401610dc8939291906134a3565b600060405180830381600087803b158015610de257600080fd5b505af1158015610df6573d6000803e3d6000fd5b505050508473ffffffffffffffffffffffffffffffffffffffff163373ffffffffffffffffffffffffffffffffffffffff16827f06b9e486c68303eb64052e0493f906f3d93a1b7149b6b8dcff221aebd16c351387600160008781526020019081526020016000206003015487604051610e7293929190613722565b60405180910390a4610e82611d91565b949350505050565b610e926120cb565b610e9c6000612152565b565b610ea6612ad5565b60016000838152602001908152602001600020604051806101400160405290816000820160009054906101000a900473ffffffffffffffffffffffffffffffffffffffff1673ffffffffffffffffffffffffffffffffffffffff1673ffffffffffffffffffffffffffffffffffffffff1681526020016001820160009054906101000a900473ffffffffffffffffffffffffffffffffffffffff1673ffffffffffffffffffffffffffffffffffffffff1673ffffffffffffffffffffffffffffffffffffffff16815260200160028201548152602001600382015481526020016004820160009054906101000a900460ff161515151581526020016004820160019054906101000a900473ffffffffffffffffffffffffffffffffffffffff1673ffffffffffffffffffffffffffffffffffffffff1673ffffffffffffffffffffffffffffffffffffffff16815260200160058201548152602001600682015481526020016007820160009054906101000a900473ffffffffffffffffffffffffffffffffffffffff1673ffffffffffffffffffffffffffffffffffffffff1673ffffffffffffffffffffffffffffffffffffffff1681526020016008820154815250509050919050565b600360009054906101000a900473ffffffffffffffffffffffffffffffffffffffff1681565b6000806110a2612229565b90508060000160009054906101000a900473ffffffffffffffffffffffffffffffffffffffff1691505090565b6040518060400160405280600581526020017f352e302e3000000000000000000000000000000000000000000000000000000081525081565b611110611a82565b6000600160008381526020019081526020016000209050600073ffffffffffffffffffffffffffffffffffffffff168160000160009054906101000a900473ffffffffffffffffffffffffffffffffffffffff1673ffffffffffffffffffffffffffffffffffffffff16036111ba576040517f08c379a00000000000000000000000000000000000000000000000000000000081526004016111b19061333f565b60405180910390fd5b8060040160009054906101000a900460ff161561120c576040517f08c379a0000000000000000000000000000000000000000000000000000000008152600401611203906137a5565b60405180910390fd5b8060030154421015611253576040517f08c379a000000000000000000000000000000000000000000000000000000000815260040161124a90613811565b60405180910390fd5b60018160040160006101000a81548160ff021916908315150217905550600073ffffffffffffffffffffffffffffffffffffffff168160070160009054906101000a900473ffffffffffffffffffffffffffffffffffffffff1673ffffffffffffffffffffffffffffffffffffffff16036113b6578060010160009054906101000a900473ffffffffffffffffffffffffffffffffffffffff1673ffffffffffffffffffffffffffffffffffffffff166323b872dd308360000160009054906101000a900473ffffffffffffffffffffffffffffffffffffffff1684600201546040518463ffffffff1660e01b8152600401611351939291906134a3565b600060405180830381600087803b15801561136b57600080fd5b505af115801561137f573d6000803e3d6000fd5b50505050817f2809c7e17bf978fbc7194c0a694b638c4215e9140cacc6c38ca36010b45697df60405160405180910390a25061173d565b8060010160009054906101000a900473ffffffffffffffffffffffffffffffffffffffff1673ffffffffffffffffffffffffffffffffffffffff166323b872dd308360070160009054906101000a900473ffffffffffffffffffffffffffffffffffffffff1684600201546040518463ffffffff1660e01b815260040161143f939291906134a3565b600060405180830381600087803b15801561145957600080fd5b505af115801561146d573d6000803e3d6000fd5b50505050600073ffffffffffffffffffffffffffffffffffffffff168160040160019054906101000a900473ffffffffffffffffffffffffffffffffffffffff1673ffffffffffffffffffffffffffffffffffffffff16036115a35760008160000160009054906101000a900473ffffffffffffffffffffffffffffffffffffffff1673ffffffffffffffffffffffffffffffffffffffff16826005015460405161151790613862565b60006040518083038185875af1925050503d8060008114611554576040519150601f19603f3d011682016040523d82523d6000602084013e611559565b606091505b505090508061159d576040517f08c379a0000000000000000000000000000000000000000000000000000000008152600401611594906138c3565b60405180910390fd5b506116ad565b8060040160019054906101000a900473ffffffffffffffffffffffffffffffffffffffff1673ffffffffffffffffffffffffffffffffffffffff1663a9059cbb8260000160009054906101000a900473ffffffffffffffffffffffffffffffffffffffff1683600501546040518363ffffffff1660e01b815260040161162a9291906138e3565b6020604051808303816000875af1158015611649573d6000803e3d6000fd5b505050506040513d601f19601f8201168201806040525081019061166d9190613506565b6116ac576040517f08c379a00000000000000000000000000000000000000000000000000000000081526004016116a390613958565b60405180910390fd5b5b817f596165d0521c3cb4157fad2621686f086daed4663acb3d03441a92b9277f56838260070160009054906101000a900473ffffffffffffffffffffffffffffffffffffffff168360040160019054906101000a900473ffffffffffffffffffffffffffffffffffffffff16846005015485600601546040516117339493929190613978565b60405180910390a2505b611745611d91565b50565b6117506120cb565b600073ffffffffffffffffffffffffffffffffffffffff168173ffffffffffffffffffffffffffffffffffffffff16036117c25760006040517f1e4fbdf70000000000000000000000000000000000000000000000000000000081526004016117b99190612c77565b60405180910390fd5b6117cb81612152565b50565b60006117d8612251565b905060008160000160089054906101000a900460ff1615905060008260000160009054906101000a900467ffffffffffffffff1690506000808267ffffffffffffffff161480156118265750825b9050600060018367ffffffffffffffff1614801561185b575060003073ffffffffffffffffffffffffffffffffffffffff163b145b905081158015611869575080155b156118a0576040517ff92ee8a900000000000000000000000000000000000000000000000000000000815260040160405180910390fd5b60018560000160006101000a81548167ffffffffffffffff021916908367ffffffffffffffff16021790555083156118f05760018560000160086101000a81548160ff0219169083151502179055505b6118f933612265565b611901612279565b611909612283565b89600360006101000a81548173ffffffffffffffffffffffffffffffffffffffff021916908373ffffffffffffffffffffffffffffffffffffffff16021790555088600260006101000a81548173ffffffffffffffffffffffffffffffffffffffff021916908373ffffffffffffffffffffffffffffffffffffffff16021790555087600460006101000a81548173ffffffffffffffffffffffffffffffffffffffff021916908373ffffffffffffffffffffffffffffffffffffffff16021790555086600560006101000a81548173ffffffffffffffffffffffffffffffffffffffff021916908373ffffffffffffffffffffffffffffffffffffffff160217905550856006819055508315611a705760008560000160086101000a81548160ff0219169083151502179055507fc7f505b2f371ae2175ee4913f4499e1f2633a7b5936321eed1cdaeb6115181d26001604051611a679190613a0c565b60405180910390a15b50505050505050505050565b60005481565b6000611a8c612295565b90506002816000015403611acc576040517f3ee5aeb500000000000000000000000000000000000000000000000000000000815260040160405180910390fd5b6002816000018190555050565b6000617a694603611afc5764e8d4a5100082611af59190613a27565b9050611b5c565b600080611b2a600460009054906101000a900473ffffffffffffffffffffffffffffffffffffffff166122bd565b915091506000620f42408386611b409190613a27565b611b4a9190613a98565b9050611b56818361243a565b93505050505b919050565b8560080154811015611ba8576040517f08c379a0000000000000000000000000000000000000000000000000000000008152600401611b9f90613b15565b60405180910390fd5b85600601548111611bee576040517f08c379a0000000000000000000000000000000000000000000000000000000008152600401611be590613b81565b60405180910390fd5b600073ffffffffffffffffffffffffffffffffffffffff168660070160009054906101000a900473ffffffffffffffffffffffffffffffffffffffff1673ffffffffffffffffffffffffffffffffffffffff1614611c9e57611c9d8660070160009054906101000a900473ffffffffffffffffffffffffffffffffffffffff168760040160019054906101000a900473ffffffffffffffffffffffffffffffffffffffff1688600501546124b3565b5b838660070160006101000a81548173ffffffffffffffffffffffffffffffffffffffff021916908373ffffffffffffffffffffffffffffffffffffffff160217905550828660040160016101000a81548173ffffffffffffffffffffffffffffffffffffffff021916908373ffffffffffffffffffffffffffffffffffffffff1602179055508186600501819055508086600601819055508373ffffffffffffffffffffffffffffffffffffffff16857f2808decb743a25d04efe1bd3dc192acde3be644e2f6ad1dce5d3c46643e1c602858585604051611d8193929190613ba1565b60405180910390a3505050505050565b6000611d9b612295565b90506001816000018190555050565b7f000000000000000000000000000000000000000000000000000000000000000073ffffffffffffffffffffffffffffffffffffffff163073ffffffffffffffffffffffffffffffffffffffff161480611e5757507f000000000000000000000000000000000000000000000000000000000000000073ffffffffffffffffffffffffffffffffffffffff16611e3e612666565b73ffffffffffffffffffffffffffffffffffffffff1614155b15611e8e576040517fe07c8dba00000000000000000000000000000000000000000000000000000000815260040160405180910390fd5b565b611e986120cb565b50565b8173ffffffffffffffffffffffffffffffffffffffff166352d1902d6040518163ffffffff1660e01b8152600401602060405180830381865afa925050508015611f0357506040513d601f19601f82011682018060405250810190611f009190613c04565b60015b611f4457816040517f4c9c8ce3000000000000000000000000000000000000000000000000000000008152600401611f3b9190612c77565b60405180910390fd5b7f360894a13ba1a3210667c828492db98dca3e2076cc3735a920a3ca505d382bbc60001b8114611fab57806040517faa1d49a4000000000000000000000000000000000000000000000000000000008152600401611fa29190612f2f565b60405180910390fd5b611fb583836126bd565b505050565b7f000000000000000000000000000000000000000000000000000000000000000073ffffffffffffffffffffffffffffffffffffffff163073ffffffffffffffffffffffffffffffffffffffff161461203f576040517fe07c8dba00000000000000000000000000000000000000000000000000000000815260040160405180910390fd5b565b6000617a694603612061576107d08261205a9190613a27565b90506120c6565b60008061208f600360009054906101000a900473ffffffffffffffffffffffffffffffffffffffff166122bd565b915091506000670de0b6b3a764000083866120aa9190613a27565b6120b49190613a98565b90506120c0818361243a565b93505050505b919050565b6120d3612730565b73ffffffffffffffffffffffffffffffffffffffff166120f1611097565b73ffffffffffffffffffffffffffffffffffffffff161461215057612114612730565b6040517f118cdaa70000000000000000000000000000000000000000000000000000000081526004016121479190612c77565b60405180910390fd5b565b600061215c612229565b905060008160000160009054906101000a900473ffffffffffffffffffffffffffffffffffffffff169050828260000160006101000a81548173ffffffffffffffffffffffffffffffffffffffff021916908373ffffffffffffffffffffffffffffffffffffffff1602179055508273ffffffffffffffffffffffffffffffffffffffff168173ffffffffffffffffffffffffffffffffffffffff167f8be0079c531659141344cd1fd0a4f28419497f9722a3daafe3b4186f6b6457e060405160405180910390a3505050565b60007f9016d09d72d40fdae2fd8ceac6b6234c7706214fd39c1cd1e609a0528c199300905090565b60008061225c612738565b90508091505090565b61226d612763565b612276816127a3565b50565b612281612763565b565b61228b612763565b612293612829565b565b60007f9b779b17422d0df92223018b32b4d1fa46e071723d6817e2486d003becc55f00905090565b6000806000808473ffffffffffffffffffffffffffffffffffffffff1663feaf968c6040518163ffffffff1660e01b815260040160a060405180830381865afa15801561230e573d6000803e3d6000fd5b505050506040513d601f19601f820116820180604052508101906123329190613cbe565b509350509250506000821361237c576040517f08c379a000000000000000000000000000000000000000000000000000000000815260040161237390613d85565b60405180910390fd5b600081116123bf576040517f08c379a00000000000000000000000000000000000000000000000000000000081526004016123b690613df1565b60405180910390fd5b8193508473ffffffffffffffffffffffffffffffffffffffff1663313ce5676040518163ffffffff1660e01b8152600401602060405180830381865afa15801561240d573d6000803e3d6000fd5b505050506040513d601f19601f820116820180604052508101906124319190613e4a565b92505050915091565b600060128260ff160361244f578290506124ad565b60128260ff161015612486578160126124689190613e77565b600a6124749190613fdf565b8361247f9190613a27565b90506124ad565b6012826124939190613e77565b600a61249f9190613fdf565b836124aa9190613a98565b90505b92915050565b600081031561266157600073ffffffffffffffffffffffffffffffffffffffff168273ffffffffffffffffffffffffffffffffffffffff16036125a25760008373ffffffffffffffffffffffffffffffffffffffff168260405161251690613862565b60006040518083038185875af1925050503d8060008114612553576040519150601f19603f3d011682016040523d82523d6000602084013e612558565b606091505b505090508061259c576040517f08c379a000000000000000000000000000000000000000000000000000000000815260040161259390614076565b60405180910390fd5b50612660565b8173ffffffffffffffffffffffffffffffffffffffff1663a9059cbb84836040518363ffffffff1660e01b81526004016125dd9291906138e3565b6020604051808303816000875af11580156125fc573d6000803e3d6000fd5b505050506040513d601f19601f820116820180604052508101906126209190613506565b61265f576040517f08c379a0000000000000000000000000000000000000000000000000000000008152600401612656906140e2565b60405180910390fd5b5b5b505050565b60006126947f360894a13ba1a3210667c828492db98dca3e2076cc3735a920a3ca505d382bbc60001b61284a565b60000160009054906101000a900473ffffffffffffffffffffffffffffffffffffffff16905090565b6126c682612854565b8173ffffffffffffffffffffffffffffffffffffffff167fbc7cd75a20ee27fd9adebab32041f755214dbc6bffa90cc0225b39da2e5c2d3b60405160405180910390a26000815111156127235761271d8282612921565b5061272c565b61272b6129a5565b5b5050565b600033905090565b60007ff0c57e16840df040f15088dc2f81fe391c3923bec73e23a9662efc9c229c6a0060001b905090565b61276b6129e2565b6127a1576040517fd7e6bcf800000000000000000000000000000000000000000000000000000000815260040160405180910390fd5b565b6127ab612763565b600073ffffffffffffffffffffffffffffffffffffffff168173ffffffffffffffffffffffffffffffffffffffff160361281d5760006040517f1e4fbdf70000000000000000000000000000000000000000000000000000000081526004016128149190612c77565b60405180910390fd5b61282681612152565b50565b612831612763565b600061283b612295565b90506001816000018190555050565b6000819050919050565b60008173ffffffffffffffffffffffffffffffffffffffff163b036128b057806040517f4c9c8ce30000000000000000000000000000000000000000000000000000000081526004016128a79190612c77565b60405180910390fd5b806128dd7f360894a13ba1a3210667c828492db98dca3e2076cc3735a920a3ca505d382bbc60001b61284a565b60000160006101000a81548173ffffffffffffffffffffffffffffffffffffffff021916908373ffffffffffffffffffffffffffffffffffffffff16021790555050565b60606000808473ffffffffffffffffffffffffffffffffffffffff168460405161294b919061413e565b600060405180830381855af49150503d8060008114612986576040519150601f19603f3d011682016040523d82523d6000602084013e61298b565b606091505b509150915061299b858383612a02565b9250505092915050565b60003411156129e0576040517fb398979f00000000000000000000000000000000000000000000000000000000815260040160405180910390fd5b565b60006129ec612251565b60000160089054906101000a900460ff16905090565b606082612a1757612a1282612a91565b612a89565b60008251148015612a3f575060008473ffffffffffffffffffffffffffffffffffffffff163b145b15612a8157836040517f9996b315000000000000000000000000000000000000000000000000000000008152600401612a789190612c77565b60405180910390fd5b819050612a8a565b5b9392505050565b600081511115612aa357805160208201fd5b6040517fd6bda27500000000000000000000000000000000000000000000000000000000815260040160405180910390fd5b604051806101400160405280600073ffffffffffffffffffffffffffffffffffffffff168152602001600073ffffffffffffffffffffffffffffffffffffffff1681526020016000815260200160008152602001600015158152602001600073ffffffffffffffffffffffffffffffffffffffff1681526020016000815260200160008152602001600073ffffffffffffffffffffffffffffffffffffffff168152602001600081525090565b6000819050919050565b612b9581612b82565b82525050565b6000602082019050612bb06000830184612b8c565b92915050565b6000604051905090565b600080fd5b600080fd5b612bd381612b82565b8114612bde57600080fd5b50565b600081359050612bf081612bca565b92915050565b60008060408385031215612c0d57612c0c612bc0565b5b6000612c1b85828601612be1565b9250506020612c2c85828601612be1565b9150509250929050565b600073ffffffffffffffffffffffffffffffffffffffff82169050919050565b6000612c6182612c36565b9050919050565b612c7181612c56565b82525050565b6000602082019050612c8c6000830184612c68565b92915050565b6000819050919050565b6000612cb7612cb2612cad84612c36565b612c92565b612c36565b9050919050565b6000612cc982612c9c565b9050919050565b6000612cdb82612cbe565b9050919050565b612ceb81612cd0565b82525050565b6000602082019050612d066000830184612ce2565b92915050565b6000612d1782612cbe565b9050919050565b612d2781612d0c565b82525050565b6000602082019050612d426000830184612d1e565b92915050565b612d5181612c56565b8114612d5c57600080fd5b50565b600081359050612d6e81612d48565b92915050565b600080fd5b600080fd5b6000601f19601f8301169050919050565b7f4e487b7100000000000000000000000000000000000000000000000000000000600052604160045260246000fd5b612dc782612d7e565b810181811067ffffffffffffffff82111715612de657612de5612d8f565b5b80604052505050565b6000612df9612bb6565b9050612e058282612dbe565b919050565b600067ffffffffffffffff821115612e2557612e24612d8f565b5b612e2e82612d7e565b9050602081019050919050565b82818337600083830152505050565b6000612e5d612e5884612e0a565b612def565b905082815260208101848484011115612e7957612e78612d79565b5b612e84848285612e3b565b509392505050565b600082601f830112612ea157612ea0612d74565b5b8135612eb1848260208601612e4a565b91505092915050565b60008060408385031215612ed157612ed0612bc0565b5b6000612edf85828601612d5f565b925050602083013567ffffffffffffffff811115612f0057612eff612bc5565b5b612f0c85828601612e8c565b9150509250929050565b6000819050919050565b612f2981612f16565b82525050565b6000602082019050612f446000830184612f20565b92915050565b600060208284031215612f6057612f5f612bc0565b5b6000612f6e84828501612be1565b91505092915050565b60008115159050919050565b612f8c81612f77565b82525050565b600061014082019050612fa8600083018d612c68565b612fb5602083018c612c68565b612fc2604083018b612b8c565b612fcf606083018a612b8c565b612fdc6080830189612f83565b612fe960a0830188612c68565b612ff660c0830187612b8c565b61300360e0830186612b8c565b613011610100830185612c68565b61301f610120830184612b8c565b9b9a5050505050505050505050565b6000806000806080858703121561304857613047612bc0565b5b600061305687828801612d5f565b945050602061306787828801612be1565b935050604061307887828801612be1565b925050606061308987828801612be1565b91505092959194509250565b61309e81612c56565b82525050565b6130ad81612b82565b82525050565b6130bc81612f77565b82525050565b610140820160008201516130d96000850182613095565b5060208201516130ec6020850182613095565b5060408201516130ff60408501826130a4565b50606082015161311260608501826130a4565b50608082015161312560808501826130b3565b5060a082015161313860a0850182613095565b5060c082015161314b60c08501826130a4565b5060e082015161315e60e08501826130a4565b50610100820151613173610100850182613095565b506101208201516131886101208501826130a4565b50505050565b6000610140820190506131a460008301846130c2565b92915050565b600081519050919050565b600082825260208201905092915050565b60005b838110156131e45780820151818401526020810190506131c9565b60008484015250505050565b60006131fb826131aa565b61320581856131b5565b93506132158185602086016131c6565b61321e81612d7e565b840191505092915050565b6000602082019050818103600083015261324381846131f0565b905092915050565b60006020828403121561326157613260612bc0565b5b600061326f84828501612d5f565b91505092915050565b600080600080600060a0868803121561329457613293612bc0565b5b60006132a288828901612d5f565b95505060206132b388828901612d5f565b94505060406132c488828901612d5f565b93505060606132d588828901612d5f565b92505060806132e688828901612be1565b9150509295509295909350565b7f4e6f2061756374696f6e00000000000000000000000000000000000000000000600082015250565b6000613329600a836131b5565b9150613334826132f3565b602082019050919050565b600060208201905081810360008301526133588161331c565b9050919050565b7f456e646564000000000000000000000000000000000000000000000000000000600082015250565b60006133956005836131b5565b91506133a08261335f565b602082019050919050565b600060208201905081810360008301526133c481613388565b9050919050565b7f41756374696f6e206f7665720000000000000000000000000000000000000000600082015250565b6000613401600c836131b5565b915061340c826133cb565b602082019050919050565b60006020820190508181036000830152613430816133f4565b9050919050565b7f5a65726f20626964000000000000000000000000000000000000000000000000600082015250565b600061346d6008836131b5565b915061347882613437565b602082019050919050565b6000602082019050818103600083015261349c81613460565b9050919050565b60006060820190506134b86000830186612c68565b6134c56020830185612c68565b6134d26040830184612b8c565b949350505050565b6134e381612f77565b81146134ee57600080fd5b50565b600081519050613500816134da565b92915050565b60006020828403121561351c5761351b612bc0565b5b600061352a848285016134f1565b91505092915050565b7f55534443207472616e7366657246726f6d206661696c65640000000000000000600082015250565b60006135696018836131b5565b915061357482613533565b602082019050919050565b600060208201905081810360008301526135988161355c565b9050919050565b7f426164206475726174696f6e0000000000000000000000000000000000000000600082015250565b60006135d5600c836131b5565b91506135e08261359f565b602082019050919050565b60006020820190508181036000830152613604816135c8565b9050919050565b7f426164206d696e42696455736400000000000000000000000000000000000000600082015250565b6000613641600d836131b5565b915061364c8261360b565b602082019050919050565b6000602082019050818103600083015261367081613634565b9050919050565b7f4e487b7100000000000000000000000000000000000000000000000000000000600052601160045260246000fd5b60006136b182612b82565b91507fffffffffffffffffffffffffffffffffffffffffffffffffffffffffffffffff82036136e3576136e2613677565b5b600182019050919050565b60006136f982612b82565b915061370483612b82565b925082820190508082111561371c5761371b613677565b5b92915050565b60006060820190506137376000830186612b8c565b6137446020830185612b8c565b6137516040830184612b8c565b949350505050565b7f416c726561647920656e64656400000000000000000000000000000000000000600082015250565b600061378f600d836131b5565b915061379a82613759565b602082019050919050565b600060208201905081810360008301526137be81613782565b9050919050565b7f4e6f7420656e6465642079657400000000000000000000000000000000000000600082015250565b60006137fb600d836131b5565b9150613806826137c5565b602082019050919050565b6000602082019050818103600083015261382a816137ee565b9050919050565b600081905092915050565b50565b600061384c600083613831565b91506138578261383c565b600082019050919050565b600061386d8261383f565b9150819050919050565b7f5061792073656c6c657220455448206661696c65640000000000000000000000600082015250565b60006138ad6015836131b5565b91506138b882613877565b602082019050919050565b600060208201905081810360008301526138dc816138a0565b9050919050565b60006040820190506138f86000830185612c68565b6139056020830184612b8c565b9392505050565b7f5061792073656c6c6572204552433230206661696c6564000000000000000000600082015250565b60006139426017836131b5565b915061394d8261390c565b602082019050919050565b6000602082019050818103600083015261397181613935565b9050919050565b600060808201905061398d6000830187612c68565b61399a6020830186612c68565b6139a76040830185612b8c565b6139b46060830184612b8c565b95945050505050565b6000819050919050565b600067ffffffffffffffff82169050919050565b60006139f66139f16139ec846139bd565b612c92565b6139c7565b9050919050565b613a06816139db565b82525050565b6000602082019050613a2160008301846139fd565b92915050565b6000613a3282612b82565b9150613a3d83612b82565b9250828202613a4b81612b82565b91508282048414831517613a6257613a61613677565b5b5092915050565b7f4e487b7100000000000000000000000000000000000000000000000000000000600052601260045260246000fd5b6000613aa382612b82565b9150613aae83612b82565b925082613abe57613abd613a69565b5b828204905092915050565b7f42656c6f77206d696e4269645573640000000000000000000000000000000000600082015250565b6000613aff600f836131b5565b9150613b0a82613ac9565b602082019050919050565b60006020820190508181036000830152613b2e81613af2565b9050919050565b7f426964206e6f74206869676820656e6f75676800000000000000000000000000600082015250565b6000613b6b6013836131b5565b9150613b7682613b35565b602082019050919050565b60006020820190508181036000830152613b9a81613b5e565b9050919050565b6000606082019050613bb66000830186612c68565b613bc36020830185612b8c565b613bd06040830184612b8c565b949350505050565b613be181612f16565b8114613bec57600080fd5b50565b600081519050613bfe81613bd8565b92915050565b600060208284031215613c1a57613c19612bc0565b5b6000613c2884828501613bef565b91505092915050565b600069ffffffffffffffffffff82169050919050565b613c5081613c31565b8114613c5b57600080fd5b50565b600081519050613c6d81613c47565b92915050565b6000819050919050565b613c8681613c73565b8114613c9157600080fd5b50565b600081519050613ca381613c7d565b92915050565b600081519050613cb881612bca565b92915050565b600080600080600060a08688031215613cda57613cd9612bc0565b5b6000613ce888828901613c5e565b9550506020613cf988828901613c94565b9450506040613d0a88828901613ca9565b9350506060613d1b88828901613ca9565b9250506080613d2c88828901613c5e565b9150509295509295909350565b7f4f7261636c653a2062616420616e737765720000000000000000000000000000600082015250565b6000613d6f6012836131b5565b9150613d7a82613d39565b602082019050919050565b60006020820190508181036000830152613d9e81613d62565b9050919050565b7f4f7261636c653a207374616c6500000000000000000000000000000000000000600082015250565b6000613ddb600d836131b5565b9150613de682613da5565b602082019050919050565b60006020820190508181036000830152613e0a81613dce565b9050919050565b600060ff82169050919050565b613e2781613e11565b8114613e3257600080fd5b50565b600081519050613e4481613e1e565b92915050565b600060208284031215613e6057613e5f612bc0565b5b6000613e6e84828501613e35565b91505092915050565b6000613e8282613e11565b9150613e8d83613e11565b9250828203905060ff811115613ea657613ea5613677565b5b92915050565b60008160011c9050919050565b6000808291508390505b6001851115613f0357808604811115613edf57613ede613677565b5b6001851615613eee5780820291505b8081029050613efc85613eac565b9450613ec3565b94509492505050565b600082613f1c5760019050613fd8565b81613f2a5760009050613fd8565b8160018114613f405760028114613f4a57613f79565b6001915050613fd8565b60ff841115613f5c57613f5b613677565b5b8360020a915084821115613f7357613f72613677565b5b50613fd8565b5060208310610133831016604e8410600b8410161715613fae5782820a905083811115613fa957613fa8613677565b5b613fd8565b613fbb8484846001613eb9565b92509050818404811115613fd257613fd1613677565b5b81810290505b9392505050565b6000613fea82612b82565b9150613ff583613e11565b92506140227fffffffffffffffffffffffffffffffffffffffffffffffffffffffffffffffff8484613f0c565b905092915050565b7f526566756e6420455448206661696c6564000000000000000000000000000000600082015250565b60006140606011836131b5565b915061406b8261402a565b602082019050919050565b6000602082019050818103600083015261408f81614053565b9050919050565b7f526566756e64204552433230206661696c656400000000000000000000000000600082015250565b60006140cc6013836131b5565b91506140d782614096565b602082019050919050565b600060208201905081810360008301526140fb816140bf565b9050919050565b600081519050919050565b600061411882614102565b6141228185613831565b93506141328185602086016131c6565b80840191505092915050565b600061414a828461410d565b91508190509291505056fea264697066735822122069414a47e4cd14eaaf0092f17847d610af78ddf22c2ca5df8b453b5be9e8cddd64736f6c634300081c0033",
  "linkReferences": {},
  "deployedLinkReferences": {}
}