{
  "_format": "hh-sol-artifact-1",
  "contractName": "MockV3Aggregator",
  "sourceName": "contracts/mocks/MockV3Aggregator.sol",
  "abi": [
    {
      "inputs": [
        {
          "internalType": "uint8",
          "name": "_decimals",
          "type": "uint8"
        },
        {
          "internalType": "int256",
          "name": "_answer",
          "type": "int256"
        }
      ],
      "stateMutability": "nonpayable",
      "type": "constructor"
    },
    {
      "inputs": [],
      "name": "answer",
      "outputs": [
        {
          "internalType": "int256",
          "name": "",
          "type": "int256"
        }
      ],
      "stateMutability": "view",
      "type": "function"
    },
    {
      "inputs": [],
      "name": "decimals",
      "outputs": [
        {
          "internalType": "uint8",
          "name": "",
          "type": "uint8"
        }
      ],
      "stateMutability": "view",
      "type": "function"
    },
    {
      "inputs": [],
      "name": "latestRoundData",
      "outputs": [
        {
          "internalType": "uint80",
          "name": "",
          "type": "uint80"
        },
        {
          "internalType": "int256",
          "name": "",
          "type": "int256"
        },
        {
          "internalType": "uint256",
          "name": "",
          "type": "uint256"
        },
        {
          "internalType": "uint256",
          "name": "",
          "type": "uint256"
        },
        {
          "internalType": "uint80",
          "name": "",
          "type": "uint80"
        }
      ],
      "stateMutability": "view",
      "type": "function"
    }
  ],
  "bytecode": "0x608060405234801561001057600080fd5b5060405161032b38038061032b833981810160405281019061003291906100ce565b816000806101000a81548160ff021916908360ff16021790555080600181905550505061010e565b600080fd5b600060ff82169050919050565b6100758161005f565b811461008057600080fd5b50565b6000815190506100928161006c565b92915050565b6000819050919050565b6100ab81610098565b81146100b657600080fd5b50565b6000815190506100c8816100a2565b92915050565b600080604083850312156100e5576100e461005a565b5b60006100f385828601610083565b9250506020610104858286016100b9565b9150509250929050565b61020e8061011d6000396000f3fe608060405234801561001057600080fd5b50600436106100415760003560e01c8063313ce5671461004657806385bb7d6914610064578063feaf968c14610082575b600080fd5b61004e6100a4565b60405161005b91906100f8565b60405180910390f35b61006c6100b5565b604051610079919061012c565b60405180910390f35b61008a6100bb565b60405161009b959493929190610185565b60405180910390f35b60008054906101000a900460ff1681565b60015481565b60008060008060008060015442426000945094509450945094509091929394565b600060ff82169050919050565b6100f2816100dc565b82525050565b600060208201905061010d60008301846100e9565b92915050565b6000819050919050565b61012681610113565b82525050565b6000602082019050610141600083018461011d565b92915050565b600069ffffffffffffffffffff82169050919050565b61016681610147565b82525050565b6000819050919050565b61017f8161016c565b82525050565b600060a08201905061019a600083018861015d565b6101a7602083018761011d565b6101b46040830186610176565b6101c16060830185610176565b6101ce608083018461015d565b969550505050505056fea2646970667358221220ed8426865f49240782dd08bedb5519f8c83d8c42f4efdd57d160f129a51f442064736f6c634300081c0033",
  "linkReferences": {},
  "deployedLinkReferences": {}
}